:020000040007F3
:10700000007C002089740700917407005572070006
:10701000957407009774070099740700000000003A
:107020000000000000000000000000009B7407004A
:107030009D740700000000009F740700A174070002
:1070400089880700A3740700A3740700A3740700CE
:10705000A3740700A3740700A3740700A3740700B8
:10706000A3740700A3740700A3740700A3740700A8
:10707000A3740700A3740700A3740700A374070098
:10708000C18B0700E1880700A3740700A374070001
:1070900005890700A374070009890700A374070086
:1070A000A3740700A3740700A3740700A374070068
:1070B000A3740700A3740700000000000000000094
:1070C000A3740700A3740700A3740700A374070048
:1070D000A3740700A3740700A37407000000000056
:1070E00000000000000000000000000000000000A0
:1070F0000000000000000000000000000000000090
:10710000000000000000000000000000000000007F
:10711000000000000000000000000000000000006F
:10712000000000000000000000000000000000005F
:10713000000000000000000000000000000000004F
:10714000000000000000000000000000000000003F
:10715000000000000000000000000000000000002F
:10716000000000000000000000000000000000001F
:10717000000000000000000000000000000000000F
:1071800000000000000000000000000000000000FF
:1071900000000000000000000000000000000000EF
:1071A00000000000000000000000000000000000DF
:1071B00000000000000000000000000000000000CF
:1071C00000000000000000000000000000000000BF
:1071D00000000000000000000000000000000000AF
:1071E000000000000000000000000000000000009F
:1071F000000000000000000000000000000000008F
:10720000DFF80CD000F092F900480047319D0700EC
:10721000007C0020056885F308884068FF2464B27C
:10722000EFF30585002D07D1EFF31481022291437E
:1072300081F31488A64600472546064621273FBA13
:10724000F0B40024002500260027F0B4F92040B255
:1072500000470000094B1EF0040F1CBFEFF309802C
:107260001847EFF308800649064A884201D8904241
:1072700002D88D464FF0000018470000D98707005C
:10728000007C0020005C002030B450E8012F93B255
:10729000C48923448489A34228BF1B1B0489A342B9
:1072A00002BFBFF32F8F002007E0C3EA020340E8CC
:1072B0000134002CE9D14FF001000A6030BC704766
:1072C00050E8012FC2EA024240E801210029F7D12B
:1072D000704730B450E8022F1FFAA2F3C488A342CB
:1072E00002BFBFF32F8F00200DE0C489234484899F
:1072F000A34228BF1B1BC2EA034340E80234002C10
:10730000E8D14FF001000A6030BC704750E8022F0E
:10731000C2EA224240E802210029F7D17047034621
:1073200053E8022FD988B2EB324F4FF0000017BF5D
:1073300092B241EA014142EA014104E05A68B2EBEB
:10734000324F08BF012043E80212002AE8D17047FB
:1073500030B4044654E8000F0D4644E80053002BB7
:10736000F8D1156030BC704730B4044654E8000FC3
:1073700040EA010544E80053002BF7D1156030BC0A
:10738000704730B4044654E8000F00EA010544E8B1
:107390000053002BF7D1156030BC704730B4044661
:1073A00054E8000F80EA010544E80053002BF7D1B0
:1073B000156030BC704730B4044654E8000F00EB51
:1073C000010544E80053002BF7D1156030BC70472D
:1073D00030B4044654E8000FA0EB010544E8005324
:1073E000002BF7D1156030BC7047000030B4044664
:1073F00054E8000F0D4644E80053002BF8D1156007
:1074000030BC704730B4044654E8000F40EA010530
:1074100044E80053002BF7D1156030BC704730B4FE
:10742000044654E8000F00EA010544E80053002B2D
:10743000F7D1156030BC704730B4044654E8000FF3
:1074400080EA010544E80053002BF7D1156030BCF9
:10745000704730B4044654E8000F00EB010544E8DF
:107460000053002BF7D1156030BC704730B4044690
:1074700054E8000FA0EB010544E80053002BF7D1BE
:10748000156030BC7047000006488047064800473A
:10749000FEE7FEE7FEE7FEE7FEE7FEE7FEE7FEE7C4
:1074A000FEE7FEE72989070001720700202A04DBB6
:1074B000203A00FA02F1002070479140C2F1200307
:1074C00020FA03F319439040704740EA01039B07F9
:1074D00003D009E008C9121F08C0042AFAD203E049
:1074E00011F8013B00F8013B521EF9D27047D2B2AD
:1074F00001E000F8012B491EFBD270470022F6E79D
:1075000010B513460A4604461946FFF7F0FF204619
:1075100010BD30B504460020034600E05B1C9342DA
:1075200003D2E05CCD5C401BF8D030BD064C074D6B
:1075300006E0E06840F0010394E807009847103443
:10754000AC42F6D3FFF760FEE4CF070004D007009B
:107550002DE9F0438BB08046129D15F9046B00961F
:1075600014461F4689462B4602A81146424600F0A3
:10757000B8FC02A80146129A00F0A3FC404641461E
:1075800002AA129B00F08DFC2046214602AA129B03
:1075900000F087FC2B46384639464A46009600F0F4
:1075A000A0FC02A83946129A00F08BFC02A8014602
:1075B00042462B46009600F094FC02A80146224663
:1075C0002B46009600F08DFC2046214642462B4675
:1075D000009600F086FC484649462246129B00F081
:1075E00060FC2046414602AA2B46009600F079FC3A
:1075F000384639462246129B00F053FC384639463D
:107600004A462B46009600F06CFC204602A9324602
:1076100000F031FE0BB0BDE8F083F0B589B01C4638
:1076200007460E461546684611461A4600F049FCC4
:10763000384639466A46234600F033FC68466946B8
:107640002A46234600F02DFC304631466A46234642
:1076500000F027FC09B0F0BD1AB1013A8B5C8354ED
:10766000FAE770472DE9F0478846B3F902101F4644
:107670000825CB1D202493FBF5F51F31954291FB86
:10768000F4F44FFA84F928BF15460646494600F03F
:1076900073FA2A4630464146FFF7DEFFB7F902305B
:1076A000ED009D4220D9ED1A06EB840100228E42A6
:1076B0000AD251F8040D20FA05F313430B60C5F10B
:1076C000200300FA03F2F2E72437384631464A46EF
:1076D00000F05EFA012807D0304631463A464B4664
:1076E000BDE8F04700F01CBFBDE8F0872DE9F0478A
:1076F00093F9006092B0044689461046314615461B
:10770000984600F06FFA002840F0978002A849469A
:10771000424600F0D6FB43460AA8214602AA00F0E2
:10772000C0FB02A80146424600F0CBFB4346484658
:1077300049462A4600F0B5FB08F1040728462946C9
:10774000424600F0BEFB204621462A463B460096B4
:1077500000F0F6FA284629462A463B46009600F0F5
:10776000EFFA284621462A463B46009600F0B9FB30
:10777000204621462A46434600F093FB28462146F0
:1077800022463B46009600F0DBFA20463B46009638
:1077900021462A4600F0D4FA2368DB07204613D599
:1077A000334621463A4600F0BBF931468246204630
:1077B00000F054FD06F18043013B54F8230040EAF9
:1077C000CA7044F8230002E0314600F047FD284625
:1077D0002146424600F075FB284629460AAA3B4648
:1077E000009600F07EFB284629460AAA3B460096F2
:1077F00000F077FB0AA801462A463B46009600F0B7
:1078000070FB204621460AAA434600F04AFB02A824
:1078100002463B462146009600F063FB204629467F
:10782000324600F028FD28464946324600F023FD46
:10783000484602A9324600F01EFD12B0BDE8F087AE
:107840000048704734CF07002DE9F04FEFB01E46D7
:10785000789C059023780493B4F9023092461F3344
:10786000202293FBF2F3DBB206939DF9187094F992
:10787000012007F1FF3926AB002543F829506EABF4
:1078800003EB89034EA88B46314643F8805C43F8EE
:10789000605CFFF7E1FE94F9012056A8B118FFF7EC
:1078A000DBFE9DF910604EA8314600F09BF9804642
:1078B000002840F02F8156A8314600F093F9054684
:1078C000002840F0258104F1240840464EA93A469C
:1078D00000F05EF9012840F01D81404656A93A4665
:1078E00000F056F90128089040F014813B461EA88C
:1078F00056A9424600F03DFA0DF1380C6046594653
:10790000524623464CF82950CDF80CC0FFF7AAFE8A
:10791000DDF80CC00097604661461EAA4346CDF8CC
:1079200024C00DF5BC7900F0AAFA4346009716A8CA
:107930004EA91EAA00F0A3FA48463246059900F067
:107940009AFCB300039309EB030B039A059B58467B
:107950009918324600F08FFC04F144031946324670
:1079600036A8079300F087FC04EB860132463EA858
:10797000443104F1040A00F07EFC494600961EA83A
:1079800036AA534600F0ADFA4A465B4636A83EA9F1
:107990000094FFF7DDFD1EA801463346524600F075
:1079A000E8F91EAA484659462346FFF736FEDDF899
:1079B00024C0079B0B936046059B0C933946CDF87A
:1079C00014C00A95CDF8349000F026FC39460546DF
:1079D00016A800F021FCA842B8BF284685B2DDF801
:1079E00014C06F1E3FB26046394600F0C9FD3946EB
:1079F00010F1000916A818BF4FF0010900F0C0FDF2
:107A0000002814BF0223002343EA09090DF1280BC3
:107A100032465BF8297026A8394600F02CFC039BFF
:107A20003246F9182EA800F026FC31461EA800F0B8
:107A3000A3F8023D089B1E93AEB237B2002F44DB81
:107A400023461EAAD4F8A45026A82EA9A847394632
:107A50000EA800F095FD3946051C16A818BF012593
:107A600000F08EFD002814BF022300231D430AAB43
:107A700053F8257037B39DF9105036A839462A4679
:107A800000F0F9FB039B3EA8F9182A4600F0F3FB2F
:107A900036A83EA91EAA2346FFF7BFFD46A826A981
:107AA00036AA5346009500F01CFA36A83EA926AA2D
:107AB0002EAB0094FFF74CFD1EA8014646AA2346B4
:107AC00000F0EFF9013EB6B2B7E79DF910501EA8DD
:107AD000014652462B4600F04CF9234626A82EA913
:107AE0001EAAFFF79AFD9DF91840404626A9224696
:107AF00000F04EF8012805D026A80146424623464C
:107B000000F00EFD26A84EA92A4600F056F802E025
:107B1000404600E028466FB0BDE8F08F000000004E
:107B2000C3F10803DB0070B501330446002003A550
:107B30005B1920C940CAAD1920C4184720C940CAE2
:107B4000754120C420C940CA754120C420C940CA1B
:107B5000754120C420C940CA754120C420C940CA0B
:107B6000754120C420C940CA754120C420C940CAFB
:107B7000754120C4404170BD10B5002253B28B4204
:107B800005DA1BB2002440F823400132F6E710BDAD
:107B900010B5013AD2B253B2002B09DB1BB250F838
:107BA000234051F823309C4204D8F2D2FF2002E057
:107BB000002000E0012040B210BD013A30B5D2B241
:107BC000002453B2002B09DB1BB2013A51F82350B9
:107BD00050F823306B401C43D2B2F2E7B4FA84F081
:107BE000400930BD10B500231A465CB28C4204DA5D
:107BF00050F8244001332243F7E7B2FA82F04009FB
:107C000010BD00002DE9F043A3B09846019112ABDE
:107C10004146074610469146009300F0FDFAC0EB3E
:107C2000881086B2454C33B21C40002CBEBF04F114
:107C3000FF3464F01F040134202593FBF5F5EDB209
:107C40006DB2A4B202A8294624B2FFF795FF28B26C
:107C500002AB002C03EB800010DD002213464345ED
:107C600010D259F8235005FA04F10A4340F82320B2
:107C7000C4F1200225FA02F20133F0E749464246F8
:107C800000F0F9FA0FFA88F502AB4FEA4509012432
:107C900003EB8505330444D40022114653B24B450F
:107CA00022DA0DF1880E0EEB840E0DF1880C18B25D
:107CB0005EF888EC0CEB83035EF820E053F8803C20
:107CC000C3EB0E035B1A734502D08CBF0121002168
:107CD000C4F1010E0DF1880C0CEB8E0E01325EF832
:107CE00088EC4EF82030D9E7621A544202A8414687
:107CF000544100F0B3FA22AA08F1FF3302EB8303E8
:107D000002EB8802284652F8801C53F8802C013E72
:107D100042EAC172414643F8802CB6B200F09EFAA6
:107D2000B8E722AB03EB8404384654F8881C42467B
:107D300000F0A1FA23B0BDE8F08300BF1F0000806F
:107D400070B59DF910401D4623460646FFF7E8FE34
:107D500030B9284631462246FFF71AFF012807D0DE
:107D6000304631462A462346BDE8704000F0D8BB75
:107D700070BDF0B50646A1B00F4608461946154637
:107D80001C46FFF72FFF20B130462146FFF7F4FED7
:107D900073E068463946224600F06DFA08A8294685
:107DA000224600F068FA10A82146FFF7E5FE0123FD
:107DB00018A821461093FFF7DFFE684608A922465F
:107DC000FFF7E6FE002853D0009BDA0704D468468C
:107DD000214600F043FA26E0089BDB0704D408A8FC
:107DE000214600F03BFA3DE000281EDD08AA2346AC
:107DF0006946684600F094FB6846214600F02EFA7A
:107E000010A818A92246FFF7C3FE002805DA10A81B
:107E100001462A462346FFF783FE10A8014618AA0A
:107E2000234600F07DFB10A81DE008A86A46234603
:107E3000014600F075FB08A8214600F00FFA18A8CB
:107E400010A92246FFF7A4FE002805DA18A801466B
:107E50002A462346FFF764FE18A8014610AA2346C7
:107E600000F05EFB18A82946224600F06BFCA4E750
:107E7000304610A9224600F0FEF921B0F0BD70B5E1
:107E800090B006469DF950401D466846234600F0D6
:107E90003AF8304669462A462346FFF7B3FE10B04B
:107EA00070BD30B51C4691B0054693F90030684668
:107EB00000F029F8D4F8AC3028466946984711B04C
:107EC00030BD30B5144691B0054692F900206846A1
:107ED00000F0DEF9D4F8AC3028466946984711B076
:107EE00030BD70B59DF910401D462346064600F092
:107EF00017FB38B1304631462A462346BDE870406C
:107F0000FFF70EBE70BD2DE9F04F08B4F8CA04B4F7
:107F100051F8042BA3FB028940F8048B4FF0000AB0
:107F2000E4FB629A4FF0000BE5FB62AB4FF0000CF4
:107F3000E6FB62BC4FF0000EE7FB62CE51F8042B6B
:107F40004FF00008E3FB628940F8048BE4FB629A7F
:107F5000E5FB62ABE6FB62BCE7FB62CE51F8042BAB
:107F60004FF00008E3FB628940F8048BE4FB629A5F
:107F7000E5FB62ABE6FB62BCE7FB62CE51F8042B8B
:107F80004FF00008E3FB628940F8048BE4FB629A3F
:107F9000E5FB62ABE6FB62BCE7FB62CE51F8042B6B
:107FA0004FF00008E3FB628940F8048BE4FB629A1F
:107FB000E5FB62ABE6FB62BCE7FB62CE40F8049BEC
:107FC00040F804AB40F804BB40F804CB40F804EBA5
:107FD0000CBC052B00F01E810C68A0F11400A1F16F
:107FE0001401A2F1140252F804EB4FF0000550F80E
:107FF000046BE4FB6E5652F804EB50F8047BE4FB90
:108000006E6752F804EB50F8048BE4FB6E7852F87C
:1080100004EB50F8049BE4FB6E8952F804EB50F833
:1080200004ABE4FB6E9AA0F1140052F8044B51F833
:1080300004EB4FF0000CE4FB6EC540F804CB51F8A4
:1080400004EBE4FB6E5640F8045B51F804EBE4FBF0
:108050006E6740F8046B51F804EBE4FB6E7840F86F
:10806000047B51F804EBE4FB6E8940F8048B51F873
:1080700004EBE4FB6E9AA0E80006062B00F0CA8031
:108080000C68A0F11800A1F11801A2F1180252F831
:1080900004EB4FF0000550F8046BE4FB6E5652F809
:1080A00004EB50F8047BE4FB6E6752F804EB50F8E5
:1080B000048BE4FB6E7852F804EB50F8049BE4FB6D
:1080C0006E8952F804EB50F804ABE4FB6E9A52F858
:1080D00004EB50F804BBE4FB6EABA0F1180052F8BF
:1080E000044B51F804EB4FF0000CE4FB6EC540F874
:1080F00004CB51F804EBE4FB6E5640F8045B51F8F6
:1081000004EBE4FB6E6740F8046B51F804EBE4FB0E
:108110006E7840F8047B51F804EBE4FB6E8940F87C
:10812000048B51F804EBE4FB6E9A40F8049B51F881
:1081300004EBE4FB6EABA0E8000C072B6AD008B49C
:108140000C68A0F11C00A1F11C01A2F11C0252F864
:1081500004EB4FF0000550F8046BE4FB6E5652F848
:1081600004EB50F8047BE4FB6E6752F804EB50F824
:10817000048BE4FB6E7852F804EB50F8049BE4FBAC
:108180006E8952F804EB50F804ABE4FB6E9A52F897
:1081900004EB50F804BBE4FB6EAB52F804EB50F870
:1081A00004CBE4FB6EBCA0F11C0052F8044B51F868
:1081B00004EB4FF00003E4FB6E3540F8043B51F84C
:1081C00004EBE4FB6E5640F8045B51F804EBE4FB6F
:1081D0006E6740F8046B51F804EBE4FB6E7840F8EE
:1081E000047B51F804EBE4FB6E8940F8048B51F8F2
:1081F00004EBE4FB6E9A40F8049B51F804EBE4FBBB
:108200006EAB40F804AB51F804EBE4FB6EBCA0E8A5
:10821000001808BCBDE8F08F0139C9B24BB2002B81
:108220000BDA013111F0FF0315D059B201F180438F
:10823000013B50F82320002304E050F82330002BAA
:10824000EAD0EEE712B152080133FBE7481E03EB18
:10825000401080B200E0184600B2704700EB810188
:108260000023884206D251F8042D43EA52030B60E2
:10827000D307F6E7704730B5002463B2934206DABD
:108280001BB2013451F8235040F82350F5E730BDBC
:108290002DE9F04FB1E8005E06B4AAFB09124FF0D9
:1082A0000003EBFB69234FF00004ECFB69344FF053
:1082B0000005EEFB69454FF00006EBFB6A63ECFB43
:1082C0006A344918524176415B41A9FB09784FF065
:1082D000000949F1000918EB0108A0E88001AAFB98
:1082E0000A78574158EB0608A0E88001EEFB6A4582
:1082F0004FF0000A4AF1000A4FF00001ECFB6B144A
:10830000EEFB6B454FF00002EEFB6C255FEA59096E
:108310004941644152416D4149F10009EBFB6B3A1F
:108320001AEB010AA0E80804ACFB0C6A66415AEBA0
:10833000020AA0E84004AEFB0E6A6E415AEB090A3D
:10834000A0E8400406BC052A00F0E680A0F1140075
:10835000A1F11401B1E8E043A5FB0E344FF0000594
:10836000E6FB6E454FF00006E7FB6E564FF0000748
:10837000E8FB6E674FF00008E9FB6E784FF00009EC
:10838000DB1864416D4176417F4158EB080859F193
:10839000000950F804CB13EB0C0350F804CB54EB5A
:1083A0000C0450F804CB55EB0C0550F804CB56EBFD
:1083B0000C0650F804CB57EB0C0758F1000859F1A4
:1083C0000009A0F11400EEFB0E89A0E8F803062ACC
:1083D00000F0A280A0F11800A1F11801B1E8E04777
:1083E000A5FB0E344FF00005E6FB6E454FF000068E
:1083F000E7FB6E564FF00007E8FB6E674FF0000892
:10840000E9FB6E784FF00009EAFB6E894FF0000A35
:10841000DB1864416D4176417F4158EB080859EB08
:1084200009095AF1000A50F804CB13EB0C0350F879
:1084300004CB54EB0C0450F804CB55EB0C0550F86E
:1084400004CB56EB0C0650F804CB57EB0C0750F856
:1084500004CB58EB0C0859F100095AF1000AA0F1BD
:108460001800EEFB0E9AA0E8F807072A54D0A0F1F6
:108470001C00A1F11C01B1E8E04FA5FB0E344FF048
:108480000005E6FB6E454FF00006E7FB6E564FF029
:108490000007E8FB6E674FF00008E9FB6E784FF0CD
:1084A0000009EAFB6E894FF0000AEBFB6E9A4FF071
:1084B000000BDB1864416D4176417F4158EB0808A1
:1084C00059EB09095AEB0A0A5BF1000B50F804CB8F
:1084D00013EB0C0350F804CB54EB0C0450F804CB12
:1084E00055EB0C0550F804CB56EB0C0650F804CBBA
:1084F00057EB0C0750F804CB58EB0C0850F804CBA2
:1085000059EB0C095AF1000A5BF1000BA0F11C00B9
:10851000EEFB0EABA0E8F80FBDE8F08F0000000006
:10852000C3F10803DB0070B50133002403A500BFCD
:108530005B1920C940CAAD1B20C0184720C940CADA
:10854000B54120C020C940CAB54120C020C940CA99
:10855000B54120C020C940CAB54120C020C940CA89
:10856000B54120C020C940CAB54120C020C940CA79
:10857000B54120C06441B4FA84F0400970BD00BF29
:108580004A11012301F01F0150F822008B401840CE
:1085900070470000F0B50C4689B008220646FFF788
:1085A0006AFEE36A0393236B0493636B0593A36BE7
:1085B0000693E36B0793002769466A4608236846DB
:1085C000029701970097FFF7ABFA314605466A46D6
:1085D00008233046FFF7A4FA236B0393636B0493DD
:1085E000A36B0593E36B0693054469466A4608232B
:1085F00068460797FFF794FA314605446A46082310
:108600003046FFF78DFA236A0093636A0193A36AE9
:108610000293A36B0693E36B0793054431466A46C6
:1086200008233046059704970397FFF779FA636AA2
:108630000093A36A0193E36AA26B0293636B0393B3
:1086400004920693E26B236A059205440793314630
:108650006A4608233046FFF763FAE36A0093236B08
:108660000193636B0293236A0693A36A07930544FD
:1086700031466A4608233046059704970397FFF76B
:108680004FFF236B0093636B0193A36B0293E36B28
:108690000393636A0693E36A07932D1A31466A4689
:1086A0000823304605970497FFF73AFF636B009362
:1086B000A36B0193E36B0293236A0393636A0493AE
:1086C000A36A0593236B07932D1A31466A46082344
:1086D00030460697FFF724FFA36B0093E36B0193EB
:1086E000636A0393A36A0493E36A0593636B079336
:1086F0002D1A314630466A46082302970697FFF73F
:108700000FFF2D1A16D5304631460D4A0823FFF7C4
:1087100007FA4519F7D410E0094831460822FFF757
:1087200037FA012809D030463146054A0823FFF7B9
:10873000F7FE2D1A002DEFD0F5E709B0F0BD00BF10
:1087400038CF0700F8B5036813F0010506460F4659
:10875000144605D001463A462346FFF7E1F905469F
:1087600030462146FFF77AFD45B104F18042013AD7
:1087700056F8223043F0004346F82230F8BD2DE988
:10878000F04115468AB00446884602A800212022FE
:10879000FEF7B6FE2E780323204641462A462F1DBB
:1087A00076B20293FFF78DFB2046214602AA3B4694
:1087B0000096FFF796FB2046214642462B46FFF7E0
:1087C00070FB00962046214605F184023B46FFF7E8
:1087D000B7FA0AB0BDE8F08100F000F8BFF34F8FA0
:1087E00005480168054A01F4E06111430160BFF3E7
:1087F0004F8F00BFFDE700000CED00E00400FA051C
:1088000000F01F02012191404009800000F1E020AA
:10881000C0F88012704700F01F020121914040090A
:10882000800000F1E020C0F80011704700F01F0246
:10883000012191404009800000F1E020C0F80012C1
:1088400070474907090E002806DA00F00F0000F112
:10885000E02080F8141D704700F1E02080F800143B
:1088600070470000BFF34F8F05480168054A01F4C7
:10887000E06111430160BFF34F8F00BFFDE70000CF
:108880000CED00E00400FA052DE9F0414FF480778B
:10889000384601F0C6FA0124104EA50748B1384603
:1088A00001F0C6FA0120C5F808037470002000F03A
:1088B00061FD4FF48277384601F0B3FA00280BD0FF
:1088C000384601F0B5FA0220C5F80803B470BDE8D7
:1088D000F041012000F04EBDBDE8F081C055002000
:1088E00007480021C0F84011C0F84411C0F84811F1
:1088F000C0F84C11C0F80011C0F8041104F046B8DB
:108900000010014003F090BF10B50021054A084651
:1089100000F01CFA002803D0BDE8104000F014BAA3
:1089200010BD0000F98F0700F0B598480023021D24
:1089300001780126101D4FF0805406290BD11578BF
:108940002D0708D10578C5F30315032D06D0042D96
:1089500004D0052D02D0062907D00EE0B4F8245328
:108960008B4FC5F304253D6002E015782D0704D137
:108970000578C5F30315032D02D0062904D00FE0B6
:10898000854F844D7D670EE015782D0708D1057859
:10899000C5F30315032D06D0042D04D0052D02D0F8
:1089A000062907D00EE0D4F844527C4FC5F3423577
:1089B0003D6002E015782D0704D10578C5F3031555
:1089C000032D02D0062906D011E0754D2F6827F03F
:1089D00080772F600EE015782D0708D10578C5F354
:1089E0000315032D06D0042D04D0052D02D0062931
:1089F0000AD011E04FF08045C5F80C31C5F81031B0
:108A0000664D2D1F2B6002E015782D0704D10578E7
:108A1000C5F30315032D02D0062905D00CE05F4FE6
:108A2000032564373D600AE015782D0704D10578E9
:108A3000C5F30315032D02D006290DD014E0594FBC
:108A400005253D60574D78352E60564D08352B6015
:108A50003F232D1F2B6002E013781B0704D10378FE
:108A6000C3F30313052B02D0062957D062E04E4B07
:108A70001B684E4D2B604C4B1B1D1B682D1D2B6026
:108A8000494B08331B682D1D2B60474B0C331B686B
:108A90002D1D2B60444B10331B682D1D2B60424B4A
:108AA00014331B682D1D2B603F4B18331B683F4D43
:108AB00020352B603C4B1C331B682D1D2B603A4B23
:108AC00020331B682D1D2B60374B24331B682D1D55
:108AD0002B60354B28331B682D1D2B60324B2C33FC
:108AE0001B682D1D2B60304B30331B682F4D4035DC
:108AF0002B602D4B34331B682D1D2B602A4B3833D4
:108B00001B682D1D2B60284B3C331B682D1D2B60D3
:108B1000254B40331B682D1D2B6002E013781B078B
:108B200008D10378C3F30313032B06D0042B04D01E
:108B3000052B02D0062907D019E0D4F858121C4A98
:108B400001F04F01116002E0117809070FD10078A0
:108B5000C0F30310032803D0042801D0052806D150
:108B600014480168C90702D06FF0010101600C4888
:108B70007438016841F470010160BFF34F8FBFF397
:108B80006F8F0E490C480860F0BD0000E00F00F048
:108B9000403501400DF0ADBA00C007403C05004033
:108BA000FCED00E0105600400404001020C5004019
:108BB000E40E0040000400400090D0033C20002060
:108BC000094882B0D0F804034FF0000110F0010F03
:108BD00007D006480160006800900548406802B070
:108BE000004702B070470000000001400001014052
:108BF0005C20002002E008C8121F08C1002AFAD138
:108C000070477047002001E001C1121F002AFBD10C
:108C1000704700000121202803DA81400548014007
:108C200003E0402802DA2038814009B10120704772
:108C300000207047FC06FFBD082806D228B1012895
:108C400003D0042801D0012070470020704780071E
:108C500001D00020704701207047C3688B4206D8BE
:108C600011440069491E814201D80120704700204B
:108C70007047000030B58DB00021089109910A912C
:108C80000B9110B14FF4006000E02820ADF82A00ED
:108C90002A4806240225007800BB01910291039125
:108CA0000491102201A92648FEF733FCB0B12349F4
:108CB00023481031103008602048012110306EDF49
:108CC000002839D11D491E481431012208601B4873
:108CD000002114306FDF04248DF828501620ADF8E1
:108CE00030008DF8005001208DF801008DF8024011
:108CF00003208DF803008DF8045059208DF80500ED
:108D0000FE208DF806000CA90DF109007DDF68B981
:108D1000BDF83000411C8DF80710092109308DF88D
:108D20000810C1B200231A46684672DF002803D13A
:108D300074DF012108A873DF0DB030BD4020002092
:108D4000B0360020FFF78EFDFFF78CFD2DE9F84FC0
:108D5000254C8146924660880E46814241D80027C4
:108D60004FF6FF788DF80070684600F007F922781A
:108D70006078A188884201DA401C00E00020C0B27F
:108D8000904204D19DF8000000F01CF927E06578BE
:108D90006078884201DA401C00E0002060709DF895
:108DA000000000F00FF9454519D0A068B9F1000F97
:108DB00040F835A00DD066B16188E068324605FB09
:108DC00001004946FEF781FBA06800EBC5008680E4
:108DD00002E000EBC50087800020BDE8F88F04208A
:108DE000FBE70920F9E700006820002010B50E4CD1
:108DF00003E0401C00E00020207020786178814270
:108E000010D022786188E068A36802FB010003EBC0
:108E1000C20153F83220898890472078A18888427F
:108E2000E9DAE6E710BD00006820002030B5CB008D
:108E300008339DB293074FF0000401D0072030BDE6
:108E4000044B9A602A44DA605C701C7058809980E8
:108E5000002030BD68200020084B9B7823B12AB148
:108E600020B10068037C1BB10820704707207047C1
:108E7000002303744174426118467047D4550020A2
:108E800070B503F00BFA104800240B2104704470F5
:108E90000E4D817014206C602C706C70FFF7B0FC6C
:108EA00007211420FFF7CDFC1420FFF7B4FC08487D
:108EB000046007211120FFF7C4FC0548001F00686B
:108EC000A860002070BD0000D4550020782000204C
:108ED000081501402DE9FC47DFF8789099F8023039
:108EE00073B368B3052902D20720BDE8FC87436944
:108EF00033B3437C012B25D0002704460025884648
:108F000016468DF80050684600F038F801A803F0C6
:108F1000A3FDC8B1012101700F4944600968C0E98F
:108F20000218C0E904769DF8040089F801009DF854
:108F3000000000F047F81420FFF778FC2846D4E73B
:108F40000820D2E70F46D8E704259DF8000000F07E
:108F500039F8F3E7D4550020041501400649897813
:108F600039B130B1416921B100210174022103F00E
:108F7000E9BC082070470000D455002030B5EFF35D
:108F8000108172B60D4A9468012324B10370002940
:108F900000D162B630BD93604FF0E023D3F880512A
:108FA000074C25401560C3F88041D3F884415460D4
:108FB0005A17C3F8842100220270E8E7E056002027
:108FC000FC06FFBD0B498A68002A11D000280FD18A
:108FD000EFF3108072B60B684FF0E022C2F8003158
:108FE0004B68C2F8043100228A60002800D162B6C2
:108FF00070470000E056002002F0D6BA30B50546B2
:10900000154C85B04FF6FF70608001208DF812007E
:109010004FF65960ADF810002A4604A90120A0DFE0
:10902000002817D10D4B0FCB8DE80F00A91C684607
:1090300062DF00280ED1284600F028FC002809D164
:10904000284600F0DBFA002804D1E06840F0010077
:10905000E060002005B030BD40200020B0CC07000B
:1090600070B50E4C4FF6FF756088A84210D0E168CD
:1090700041F00401E160A168491CA160132176DF81
:10908000074800F0F7FF6580A068401CA06000E082
:1090900074DFBDE8704002F033BA000040200020C9
:1090A000400D03002DE9F041144D002406462746EB
:1090B000EC6001F08DFFD8B13C2211491148FEF758
:1090C00004FA0F4C2F70083C00F0F8F8002812D179
:1090D000204600F009FD00280DD10A481438FFF79A
:1090E0008DFF002807D13046BDE8F041FFF7C2BD33
:1090F00001202870E8E7BDE8F08100004020002052
:109100004C550020B0360020FEB5674D044602885D
:109110000021644E28784FF6FF77232A7CD035DC77
:10912000132A43D025DC012A50D0102A37D0112A27
:1091300037D1A868401CA8606F80287B400730D4D6
:109140000020FFF797FD08B1FFF7FEFD574C2068A0
:10915000FFF704FF08B1FFF7F7FD00224FF470118D
:109160002068FFF7B7FE00281BD0BDE8FE40FFF7E0
:10917000EBBD142A3FD01A2A4FD01F2A11D0212A22
:109180000FD10091A08869468FDF87E0503A082A06
:1091900007D2DFE802F0651F420606791407A088AF
:1091A0006880FEBDBDE8FE4001F03EBE00231A46C9
:1091B000852168887FDFD6E7FFF7C6FDFEBDA07971
:1091C0000028FBD11321688876DFCCE7002168886E
:1091D00066DFC8E7A0790028F0D02146314802F0C8
:1091E000B5FA0028EAD003B004F10801BDE8F04068
:1091F0002C4802F04DBA00210A4648B9294A208A73
:109200001432528D904201D126492C31254A143214
:10921000A088002386DFA6E73AE028B10023A088D3
:109220001A461946A9DF9EE71E4901230822483144
:109230006888A9DF002896D1022300221146688899
:10924000A9DF00288FD131883A466888A7DFA0F5CA
:1092500040510239B2D00828B0D01128AED082E7F0
:10926000E088B2889042A9D1009102208DF80000D8
:10927000029104F112000190208A02900C4A694682
:10928000A86801F083FDFEBDA0881721ADDF6AE765
:1092900000910191A0880022694690DF00288BD1BF
:1092A000FEBD00009C36002040200020C0CC0700FE
:1092B00009C00700007800F00100704730B587B0A2
:1092C0000024009401940294039401F047FC0028C8
:1092D0003CD11F4813DF002838D102F02FF908B124
:1092E000FFF732FD684602F0D7F800282ED101259D
:1092F00001948DF804508DF80540029403948DF884
:10930000064001A94020009A69DF00281ED101947F
:109310008DF804501720ADF806000294039401A9BB
:109320002320009A69DF002810D10A48007850B93C
:109330000494059406948DF8105004A9A020009A76
:1093400069DF002802D1684602F0B0F807B030BDEE
:10935000007007004020002010B543689C1844604E
:1093600021B905E013F8010B01F8010B521EF9D2E7
:10937000012010BD70B5084C050009D010342168DB
:10938000002907D008682060496828468847F6E722
:109390000834F4E770BD0000C05500202DE9F05FEF
:1093A00026484168F1B3DFF898B00E688146DBF8D3
:1093B000004087688078E11B21F07F45ED1CB0B943
:1093C000DFF880804FF48030C8F84403C8F8040305
:1093D0001120FFF715FA1120FFF71DFA4FF0010ACF
:1093E000C8F800A02F2000F0D1FE89F802A0B542F5
:1093F00000D23546124BE8193C3320F07F4018600C
:10940000DBF800105A46091B21F07F41001B20F0B9
:109410007F40C91C81420FD9106818602F2000F0CE
:10942000B5FE00E004E0BDE8F05F1120FFF7FEB9F3
:10943000BDE8F05F02F032BFBDE8F09F7820002069
:109440000415014000100140F0B54FF0FF3622B185
:109450001268D24300230A4D0DE03246FAE7C45C9D
:1094600062400824D70700D037462F4087EA5202CF
:10947000641EF7D15B1C8B42F1D3D043F0BD0000DA
:109480002083B8EDF0B5146906468DB02068154606
:10949000271DE0B1022920D00A2000906B4609AABE
:1094A000304602F035FE00280FD009A901A8009A25
:1094B00002F0E6FC01AE96E80F0005AE86E80F006C
:1094C000236869683A4605A898470DB0F0BD0DB00D
:1094D0003046BDE8F04002F047BD6946304602F034
:1094E000D9FC0028F1D0236869683A466846984755
:1094F0000028EAD002980028F5D101987060012078
:10950000E3E753685B7813F0C00303D0402B03D02C
:109510000020704700F002B8FFF7B4BF2DE9FF410B
:109520000B465168064614464878334D00F00F024A
:1095300010F0300055F8225006D0102806D0202810
:1095400008D0302856D13EE022694DE06169012003
:10955000087047E0022B28D1042A26D84FF00108D2
:1095600069463046676902F095FC00281AD009E088
:109570000B79226913FB00226846A84770B138783E
:10958000401C3870029820B1616838784A7990425E
:10959000EED301987060029860BB02E04FF00008C3
:1095A000F7E7404604B0BDE8F081D4E904300F7914
:1095B000027817FB023349798A421BD2521C02708F
:1095C0001A46616810E008786169072A087009D1B5
:1095D000606801792069FDF791FF60682169806802
:1095E00002F073FC2269616804B03046AC46BDE805
:1095F000F04160470020D5E710CF070010B58EB0CE
:1096000004461C216846FDF779FF142108A8FDF7E0
:1096100075FF9DF80010002041F0180107908DF8AB
:109620000010A1788DF836100121ADF834109DF8A6
:109630001C1021F0FF018DF81C1015490978002934
:109640009DF81D1021F00F0101F1010121F0F00141
:109650001BD010318DF81D109DF81E1004F10C0365
:1096600021F00601891C41F011018DF81E100DA991
:10967000089107A909911721ADF82C100C902088AA
:1096800008AA6946A2DF0EB010BD2031E2E7000053
:10969000402000201FB504460D4800F15C01826B9C
:1096A000684602F0EDFB9DE8070084E807000948E2
:1096B0000949E060002008604860084A08492046DF
:1096C00002F078F9002800D0012004B010BD00009D
:1096D000E4530020E9BC070034200020D0340020EF
:1096E0007CCC07000169002900D0084770470000C2
:1096F0002DE9F041054600F104045F489C46160040
:109700004FF0000109D0BCF1000F06D094F85F20A3
:109710002AB194F860207ABB01E004203BE0227A71
:10972000002AFAD0E268824201D0062033E000200D
:109730004FF44053227C1BE004EB8007B3F80CE0AD
:109740007F69774513D194F825204C48AAB1012AA6
:1097500007D0022A01D0032ADFD121780029DCD0EA
:10976000C1687AB1022A0DD0032A10D10AE0401C48
:109770008242E1D807200EE020E021780029CCD0F9
:109780008168EEE76068884201D2052003E095F821
:10979000700020B10B20BDE8F04100F09FB9384FB8
:1097A000384B62463146386800F0D0FB30B9354856
:1097B00095F8712008384168914202D00A20BDE82E
:1097C000F081006805F17201FDF77FFE2D4B2D4AF7
:1097D000D7F80200083BA2F1100100F06DFB08B1C0
:1097E0000520ECE7274D0020343D286294F8251031
:1097F000C9B1012924D024480229C0F5FC2018D081
:1098000003298AD194F82C10002986D094F82610C8
:10981000002982D0A26A216B53182B623AB331B36C
:10982000814222D812E094F83400002897D0A06B2F
:109830000BE094F82C10002991D0216B2962EFE7FE
:1098400094F8260000288AD0A06A28620D482022B9
:10985000083004F13F010068FDF737FE286A30B197
:109860000849183901F02CF818B10420A7E70320A3
:10987000A5E70120A3E7000019350600E453002006
:10988000A0CC0700242000200070070010B58EB087
:1098900004461C216846FDF731FE142108A8FDF797
:1098A0002DFE9DF80010002041F0040107908DF876
:1098B0000010A1788DF836100221ADF834109DF813
:1098C0001C1021F0FF018DF81C10144909780029A3
:1098D0009DF81D1021F00F0101F1010121F0F001AF
:1098E0001AD010318DF81D109DF81E1008AA21F015
:1098F0000601891C41F001018DF81E100DA9089187
:1099000007A909911421ADF82C100C902088231D73
:109910006946A2DF0EB010BD2031E3E740200020F1
:1099200010B50F2001F076FD0F2001F064FD172027
:1099300001F069FD172001F05EFD042001F06AFDD1
:10994000042001F058FD102001F064FD102001F00A
:1099500052FD032001F057FD032001F04CFD1320C0
:1099600001F058FD132001F046FD002010BD00005D
:109970000E4910B50A784C780023A24212D0521C2E
:10998000D2B20A70022A00D10B70084A0B780C324E
:1099900052F8232002608868104420F07F408860DD
:1099A000012010BD0360002010BD000078200020C1
:1099B0002DE9F84380461F4615460E4600240D4803
:1099C00000F00AFA38B11120BDE8F88306EB043044
:1099D00001F028FD641CAC42F8D1064800F0F5F90E
:1099E0002B46324602214046009700F02BF800201B
:1099F000EAE700008C2000202DE9F843104D0F46C7
:109A000080461E4691466946286800F0B2F9040077
:109A100014D01C21FDF772FD01202071C4F81490B0
:109A2000380BC4F80080C4E902606946286800F079
:109A3000C1F902F04BFB0020BDE8F8830420FBE7EE
:109A40003CCD07002DE9F04186B004468068DDF882
:109A500030801D4616460F4600280CD0142168465B
:109A6000FDF74CFDCDE902658DF80070CDF8108052
:109A7000A1686846884706B0BDE8F08130B5044665
:109A8000006885B00D46806800281CD01421684607
:109A9000FDF734FD0195A0680490207910B10128EC
:109AA0000DD104E001208DF80000206904E00220BF
:109AB0008DF80000E0680003029060690390206860
:109AC00081686846884705B030BD00000249002221
:109AD00008780A707047000058200020014908707B
:109AE0000B2070475820002010B586B000249DF848
:109AF0000010019421F00F01491C21F0F0011031F8
:109B000002948DF8001048B903A86DDF00281CD11D
:109B10009DF80D00401C8DF80D0003A86CDF002897
:109B200013D10BA1072268467CDF00280DD1062047
:109B3000ADF804001820ADF80600ADF808404FF469
:109B4000C870ADF80A0001A87ADF06B010BD0000A9
:109B50004466755461726700014941600020704796
:109B600010CD070008B50C4941600C4801216A4638
:109B7000FDF748FC68B901F029FD08491C2340F2B3
:109B8000EC4208740448A1F2EC41001F006800F0A8
:109B9000DDF8002008BD000040CD0700D85B0020A4
:109BA00002480068002800D0012070478C20002067
:109BB0000248007A002800D001207047D85B0020BE
:109BC000800701D0002070470120704702681346CB
:109BD00002E08A4204D01268002AFAD10B600160C8
:109BE000704770B5054608680C464A68866828467E
:109BF000314602F08BF86068286104F10C0068615E
:109C000070780221B1EB901F01D1241D2C6170BD31
:109C100006490120086006480168C1F30041002997
:109C2000FAD1044900208870704700000C00004001
:109C300018040040C05500202DE9F047394E002798
:109C400080463D46DFF8E090D6F804A057E003D008
:109C50000446D0F81C8035E099F8002002EB420160
:109C6000521CD2B289F8002009EBC10199F80230E8
:109C7000091D9A4201D189F8005048680A780446C3
:109C8000012A12D0022A02D0032A3BD108E002F0B6
:109C900029FE00B10127257434E00574C06900E095
:109CA00070680028F9D170602CE0207C50BB886877
:109CB0006060C868A0600869E0604869A061F078E9
:109CC00000B165606268B168184B501A20F07F409F
:109CD000984202D2A168084406E0881AA16820F0E0
:109CE0007F40814202D9081A206000E0256065604B
:109CF0000120A56020742046E56102F0D5FDB8F191
:109D00000000A4D199F8001099F801008142A3D174
:109D100017B97168514502D00120BDE8F0870020D5
:109D2000FBE7000078200020D4550020FFFF7F00D3
:109D300002F050FD00F06DF8FEF794FD10B5FDF750
:109D4000EEFA08B1002010BD112010BD10B531B1E0
:109D5000B2FBF3F403FB14241CB1092010BD0E2048
:109D600010BD01600021416081608281C38108468D
:109D700010BD70B50C460546FDF786FA002802D0E6
:109D800021882868084470BD10B50A8849888A422D
:109D900003D1FDF7BBFA012010BD002010BD70B546
:109DA0000C460546FDF795FA002802D06188286820
:109DB000084470BD10B50A8849888A4203D1FDF76E
:109DC0007FFA012010BD002010BD08B500216A46B1
:109DD000FDF7D7FA009808BD08B501216A46FDF7DE
:109DE000C3FA08BD10B5044600F0B8FE00280FD134
:109DF0004FF0E021401EC1F88001C1F880022046EA
:109E000013DF002804D12046BDE81040FDF702BA58
:109E100010BD10B500F060FE002801D100F0D4FDA7
:109E200010BD00F180400068002800D0012070477C
:109E300008B500F18040002101600068009008BD75
:109E40002DE9F00300F0FF0C0023182530221C261A
:109E5000382420274FF04009BCF10A0F25D2DFE853
:109E60000CF024051D0B2015181D0B2014224A6030
:109E7000282211E08A6002E0C1E900468C60BDE85A
:109E8000F003C0F307200C3100F0D1B84A60602223
:109E900002E042224A6084220A60EBE7C1E9002521
:109EA000E8E7C1E900974A46E4E74B600B608B6046
:109EB000BDE8F003062070472DE9F04186B01C464E
:109EC00015460E468046FDF7BBFC074646B33DB33C
:109ED00034B3306830B3296821B3216811B3FFF778
:109EE0006FFEF8B12868FFF76BFED8B12068FFF766
:109EF00067FEB8B101A94046FFF7A2FF00280CD1C8
:109F000070680199884207D16A680498824203D137
:109F100060680399884207D0092006B0BDE8F08147
:109F20000E20FAE71020F8E708F0FF00042801D01F
:109F30000620F2E70097236829683068FDF784FC63
:109F400008B10020E9E70B20E7E70000F0B506467E
:109F50001A48A1B01C004068029004A817460D469C
:109F6000019008D03DB1206838B1F0B2052806D084
:109F7000062021B0F0BD0E20FBE71020F9E769466E
:109F800000F055F80028F4D160680099884201D0AB
:109F90000920EEE701A9304600F035F80028E8D1A5
:109FA0003A46294601A800F059F80028E1D1224696
:109FB00001A9304600F004F8DBE7000008CD0700F7
:109FC000F8B51446054621B11CB1486870280DD17A
:109FD00001E00720F8BD0E68E8B2694600F027F8F6
:109FE0000028F7D160680099884201D00920F8BDA7
:109FF000C5F3072028B100223046216802F00EFA8E
:10A00000F8BD0122F8E731B10A6832B14968702918
:10A0100005D2092070470E20704710207047C0B24B
:10A02000052801D006207047104602F07FBA14229E
:10A03000082811D2DFE800F01004100406080C0E06
:10A040000A6003E01C2000E0202008600020704728
:10A050003020FAE74020F8E70620704728B121B108
:10A060004368702B03D209207047072070470068AF
:10A0700002F01CBB00283ED01F49204A096800BFDF
:10A0800000BF00BF00BF00BF00BF00BF00BF9142C4
:10A090002FD000BF00BF00BF00BF00BF00BF00BF88
:10A0A00000BF00BF00BF00BF00BF00BF00BF00BFB8
:10A0B00000BF00BF00BF00BF00BF00BF00BF00BFA8
:10A0C00000BF00BF00BF00BF00BF00BF00BF00BF98
:10A0D00000BF00BF00BF00BF00BF00BF00BF00BF88
:10A0E00000BF00BF00BF00BF00BF00BF00BF00BF78
:10A0F00000BF0138C3D170473C2000200024F40089
:10A1000000283ED01F49204A096800BF00BF00BF99
:10A1100000BF00BF00BF00BF00BF91422FD000BFF3
:10A1200000BF00BF00BF00BF00BF00BF00BF00BF37
:10A1300000BF00BF00BF00BF00BF00BF00BF00BF27
:10A1400000BF00BF00BF00BF00BF00BF00BF00BF17
:10A1500000BF00BF00BF00BF00BF00BF00BF00BF07
:10A1600000BF00BF00BF00BF00BF00BF00BF00BFF7
:10A1700000BF00BF00BF00BF00BF00BF00BF01386D
:10A18000C3D170473C2000200024F40000283ED0BA
:10A190001F49204A096800BF00BF00BF00BF00BFC1
:10A1A00000BF00BF00BF91422FD000BF00BF00BF63
:10A1B00000BF00BF00BF00BF00BF00BF00BF00BFA7
:10A1C00000BF00BF00BF00BF00BF00BF00BF00BF97
:10A1D00000BF00BF00BF00BF00BF00BF00BF00BF87
:10A1E00000BF00BF00BF00BF00BF00BF00BF00BF77
:10A1F00000BF00BF00BF00BF00BF00BF00BF00BF67
:10A2000000BF00BF00BF00BF00BF0138C3D170470F
:10A210003C2000200024F4002DE9F05F2C4C804607
:10A220004FF44059206B676AD9F808104FF48055F5
:10A2300001EB000B3E1A30B9206A012803D100203F
:10A24000206200F0E1FE216B01EB080A4FEA0508ED
:10A2500002F0C0FA4546AE4200D8354605F6FF701A
:10A26000010B0022584600F05BFB00282ED1002392
:10A270002A465146584600F069FB002826D12A4656
:10A280005146584600F030FC00281FD1206B28446E
:10A29000206300F0B9FE002818D1AB44AA44761B15
:10A2A000D6D100223946D9F80800FFF7CDF8A16AC7
:10A2B000814203D10121A761C4E907010448243088
:10A2C00000F00CFCBDE8F05F00F09EBEBDE8F09F22
:10A2D000E453002010B50A4C216A01290CD168B959
:10A2E000E06958B14FF44050A16980680022FFF73F
:10A2F000ABF8E169814201D0002010BD012010BD02
:10A30000E453002070B506460C4608680F49496BB7
:10A31000451AA068AC2806D12A46A6F580410C480B
:10A3200000F0E2FB58B12A463146094800F0DCFB58
:10A3300028B102F04FFA2946304600F0E9FB2046EA
:10A3400000F0CCFBBDE8704000F05EBEE45300209E
:10A35000007007002DE9F04F87B04FF00009464D1F
:10A36000CDF80090CDF80490CDF808900E468346C5
:10A3700091F800C0D5E90F019246012422023F4F17
:10A38000AB6BBCF1070F6CD2DFE80CF06B041D382F
:10A390001A6B6900B06818B1904203D9042461E0D7
:10A3A00003245FE036480068FEF7D8FD324887F89E
:10A3B000039020213830FDF7A1F8B068A86351E080
:10A3C000CDE901014EE0B26817189F4201D903247C
:10A3D000F6E7294B71685C331844FDF776F8E86BB3
:10A3E000B168254A0844E863D6E901014032FFF725
:10A3F0002BF82864E96BCDE9011033E0984201D0D5
:10A4000008242FE0F87848BB03A8FFF743F980B190
:10A410001C4890F87410B1B190F87A2003A97830F4
:10A420004AB1164A44320CCAFFF762F9012804D037
:10A4300007E0052416E0052003E000F0E5FD58B133
:10A440000A2004460EE000780028F2D00320FFF72F
:10A4500045FB0446012805D10120F87002E0009276
:10A46000AEE702246A46214658465346984707B04D
:10A470000020BDE8F08F0000E4530020F01F002012
:10A4800004CD0700D034002030B40B4B02464FF40B
:10A4900040501C69816803F11800012C08D05C69E8
:10A4A00034B19B690C3003F6FF736FF30B0319444F
:10A4B00030BC00F003B80000E45300202DE9F04761
:10A4C000164683680D4600242C4A0146012B09D00C
:10A4D00010460127806CA52B0CD0AA2B1BD0AC2BCF
:10A4E00031D11CE0506901282DD12846FFF794FE98
:10A4F00004460EE0884600B10546284600F0C4FC3C
:10A50000040005D1404600F0E9FA00F07DFD044664
:10A510003770C4B12FE02846FFF7F4FEE8E789461C
:10A52000904600B10546284600F0AEFC30B9D8F898
:10A53000340049462844FFF7E5FE10B10446377061
:10A5400019E0377001E03078A8B10020FFF7C2FEB3
:10A5500088B10B4A00210B48FEF77EFC08B1FEF7DC
:10A56000F3FB084800224FF4A0210068FEF7B2FC7C
:10A5700008B1FEF7E9FB2046BDE8F087E453002070
:10A580003DAE070004CD0700FEB513461B4AD27846
:10A5900062B11B4A0E780024956C126D072E27D2EB
:10A5A000DFE806F026070D1713261D0000220821FC
:10A5B00020E003B01A46BDE8F04000F023B803B035
:10A5C0001A46BDE8F04000F0B1B8CDE9004202956E
:10A5D00009E003B01A46BDE8F04000F057B84FF468
:10A5E00080518DE826006A46012198472046FEBD2D
:10A5F0000022022198470020FEBD0000F01F00202D
:10A60000E45300202DE9F0411E4B05461446586CDA
:10A6100010B10022082109E0886828B1B0F5805FF8
:10A6200009D90022042101E0002203212846A04785
:10A630000020BDE8F081144E124A5FEA005C376AE0
:10A64000526D03D002EB000CBC45EDD102EB000CC7
:10A65000BC45DED85864D86C1A659864F06910441B
:10A6600000221863B260896801F6FF71090B00F0DF
:10A6700057F9060003D1002201212846A0473046A1
:10A68000D7E70000E4530020F01F00202DE9F0413F
:10A69000234F06461446D7E914017A6C411A9142B9
:10A6A00006D0002208213046A0470020BDE8F081F6
:10A6B0004FF00008C7F844807865B86CF86400F083
:10A6C000A3FC0500F2D11748396D026A9142D0E926
:10A6D00003120CD18A4205D1134800F055FA014605
:10A6E000002214E0C0E905460121817016E0891AB4
:10A6F00028222831B1FBF2F302FB1311C1F128012A
:10A700004FF48052B2EBC11F04D800220121304621
:10A71000A04703E0C0E9054680F802802846C5E767
:10A72000E4530020F01F00204C3500202DE9FE4F9F
:10A73000604B4FF0280C5E4CDF680D467F1CB7FB6A
:10A74000FCF88146D4E9141016460CFB18771B69F7
:10A750000A1A9F4201D0012300E00023AF6807EBF3
:10A76000020C676CBC4502D14FF0010C01E04FF0C8
:10A77000000C4FF0000BCDE900B1A16C0291A9686B
:10A78000E246802902D96A4604211BE00A44BA4203
:10A7900002D96A46032115E0CBB9464A9368C3F152
:10A7A00080038B4202D3BAF1000F10D0C4F844B03A
:10A7B000E16CA1642065D26902442263CDE9010104
:10A7C0006A460A214846B0470020BDE8FE8F384A55
:10A7D00068684832FEF738FE354900273C468864F1
:10A7E0000B6DAA681A440A65CDE9012042E000BF5A
:10A7F0003049A0EB0408886800EB0802802A01D9E0
:10A80000C0F180086A682B4913192B4AC96802EB0A
:10A81000C111084442461946FCF757FE25484444F6
:10A82000816801EB08028260802A05D0BAF1000F2E
:10A8300020D0A868A0421DD1DFF878801E491F4BA8
:10A84000D8F80C0001EBC0111948006B00F07EF83D
:10A85000070015D01648C0F844B0C26C8264416D40
:10A860000165D8F81C300B440363CDE9011200BF29
:10A87000C8F808B0A868A04213D9002FB8D015E0D6
:10A88000D8F80C002822401CB0FBF2F302FB1300A6
:10A89000C8F80C000648D8F80810026B1144016390
:10A8A000E6E71FB96A4601214846B04738468CE7BB
:10A8B000E4530020F01F0020D020002065A90700ED
:10A8C000F0B54FF0102253694FF4405296689C1B2C
:10A8D000A4F50054844201D20420F0BD0F4A0127A0
:10A8E0000023156A012D0ED1956905F6FF756FF3EA
:10A8F0000B05641B844206D3C2E9043772190A604F
:10A900000649243104E0C2E904730E60034918319A
:10A910004B608B6008600020F0BD0000E453002015
:10A9200013460A460146014800F06CBC9C200020FA
:10A9300008B1034900E003490022034800F089BC44
:10A940004CCD07001CCD07009C20002008B50093CB
:10A9500013460A460146024800F01AFD08BD0000F1
:10A960009C20002070B5164C28222069401CB0FBAA
:10A97000F2F102FB11002061616900290CD0E1684D
:10A980000B1A2833B3FBF2F502FB1532C2F1280390
:10A99000A27812B1884205D070BD4FF48050B0EB60
:10A9A000C31FF9D801211AB1064800F0EDF801469D
:10A9B000D4E90530002298470020606170BD000096
:10A9C000F01F00204C350020F8B500268DF80060FF
:10A9D00000F0B4FA6846FFF757FD012508B18DF87D
:10A9E000005037480168C9B2B12903D10021016084
:10A9F0008DF8005033480068C0F30040FFF76AFC50
:10AA000004469DF80000204204D000F0E1FA08B9A5
:10AA10008DF800609DF8000084430AD000F0C2FA6F
:10AA2000002805D14FF440508068FFF7DBF9002083
:10AA3000F8BD8C20FFF764FB00F05AFB08B1FEF76D
:10AA400083F9002000F08EFB1E4818300168C1F326
:10AA500000410029FAD0FEF713FA08B1FEF774F9A5
:10AA6000194A00211948FEF7F7F908B1FEF76CF909
:10AA700001F090FE164A10210820FEF7D7F908B120
:10AA8000FEF762F9114800224FF470110068FEF7DA
:10AA900021FA0028CCD100F011FB0028C8D100F029
:10AAA0004DF90C48856500F0AFFA0028C0D101F0DF
:10AAB00075FE00BF01F08EFEFEF798F93EDFF9E764
:10AAC0001C050040000400403DAE0700C0CC07005C
:10AAD0000C370020E4530020002070470021016063
:10AAE00041608160704700001FB5D31C9B08B2EB2A
:10AAF000830F02D0092004B010BD044A01AC126AD1
:10AB0000009284E80B00684618DFF4E7C4CC070025
:10AB10001FB5CA1C9208B1EB820F02D0092004B005
:10AB200010BD002100910391CDE90102684618DFB4
:10AB3000F5E700001FB5130502D0092004B010BDD1
:10AB4000054BD21C92081B6800930392CDE90110BB
:10AB5000684618DFF2E70000C4CC07001FB5084CB8
:10AB600000201ECC8DE81E00064C2178002905D15E
:10AB7000684618DF002801D10121217004B010BD02
:10AB8000D4CC0700592000202DE9F05F064690F84C
:10AB90003D000127DFF89491032801D0092014E03B
:10ABA0006348624BD9E9071200683C33FFF7CEF9DE
:10ABB00008B10A270CE05D4820223C3006F13F0135
:10ABC0000068FCF7A6FC18B10C20FEF787FF0746CB
:10ABD000584D6869A8B1012816D00A2796F82500B3
:10ABE000032803D90420FEF779FF074696F82510BD
:10ABF0004FF0000A4FF0010B012908D0032906D0BD
:10AC000031E04C4C1834E9E74A4C2434E6E74FF481
:10AC100040521078142801D9506900E000204FF408
:10AC20007A73B0FBF3FCD9F81C0000F5005090F8E3
:10AC30000080B8F1140F02D9D0F8148001E04FF071
:10AC40000008B8FBF3F3926880689C4501D182420A
:10AC500009D0012903D06869012802D003E0052743
:10AC600003E0C5F820A0012F05D0C4F808A0504685
:10AC7000C4F804A02BE096F8250030B101280CD0D0
:10AC800002280CD0032811D10CE0C4F808B0686980
:10AC900001280BD1C5F820A008E0A52003E0AA20D8
:10ACA000A06003E0AC20A060B06A686396F825005D
:10ACB00020B1022805D0032805D102E07068A86001
:10ACC00001E07068E860A86C6060D9F8200020603E
:10ACD000184820213830FCF711FC1648FF22511C7F
:10ACE0005C30FCF704FCC5F830A05D464C4689F8A2
:10ACF00005B000F089F900B10A27207898B90C480E
:10AD00000D4A01210830FEF7A7F808B1FEF71CF83C
:10AD10000748002240F266618068FEF7DBF808B160
:10AD2000FEF712F825703846BDE8F09FF01F0020AE
:10AD3000A0CC0700E453002075C107007FB50120B7
:10AD4000FFF7F6FD00281AD10E4CA06B98B16846AB
:10AD5000FEF7A0FC78B10C4D206A08B9A06918B9BB
:10AD6000E06A58B9606A48B1074928621C31FFF7A8
:10AD7000A7FD0120E8700020FEF7B0FE002004B01F
:10AD800070BD0000E4530020F01F00202DE9F041C9
:10AD9000234D0646144668690F4610B1002208216B
:10ADA0000BE03978012901D006290AD13879012828
:10ADB00006D0022804D0002205213046A0472CE00E
:10ADC0006870012901D0032912D1DFF85880D8F822
:10ADD0000000FEF7C3F808B1FDF7B6FF00224FF4FC
:10ADE0007011D8F80000FEF775F808B1FDF7ACFF58
:10ADF0006878012802D002280FD105E022463946A2
:10AE00003046FFF7A7FA04E0224639463046FFF7FE
:10AE1000BBFB10B100220A21CFE70020BDE8F08182
:10AE2000F01F0020C0CC070003484179002901D061
:10AE30000121017170470000F01F002010B500F0E3
:10AE400027F908B1FDF780FF0020FFF743FA60B152
:10AE5000BFF34F8F0A4801680A4A01F4E0611143C9
:10AE60000160BFF34F8F00BFFDE7012000F026F91E
:10AE7000002803D0BDE81040FDF766BF10BD0000FC
:10AE80000CED00E00400FA052DE9F041264E0746DE
:10AE9000306B716B00F580550A1A02F6FF72140BC5
:10AEA000240321B1884202D10020BDE8F08110B90D
:10AEB000B76400F0A9F8306BB0460744B4F5805F82
:10AEC00002D804F6FF7003E040F6FF7000EB940038
:10AED000060B360301F07EFCA64203D904F6FF7090
:10AEE000060B3603324639462846FFF723FE002874
:10AEF000DBD1324639462846FFF7F6FD0028D4D18B
:10AF000035443744A64201D9002400E0A41BD8F8F8
:10AF10003410091BC8F8301000F076F80028C4D1AE
:10AF2000002CD7D1C1E70000E453002000225821B3
:10AF30000148FEF789BA0000E853002070B50020F0
:10AF4000FFF7F6FC08B1FDF7FFFE4FF4DE752A4669
:10AF500011491248FCF7B9FA104C6068012807D172
:10AF60002068401C04D0FFF7E1FF2168814212D025
:10AF700029460A48FCF7C2FAFF2260210848FCF77C
:10AF8000B6FA0120606000F03FF8002803D0BDE869
:10AF90007040FDF7D9BE70BD00F00700E4530020FB
:10AFA0004055002070B509480024D0F85C01401CD1
:10AFB00009D04FF4FE25284600F034FA5722034901
:10AFC000284600F047FA204670BD0000E4530020F8
:10AFD00010B5064C00225C21201DFEF735FA2168D1
:10AFE000814201D1012010BD002010BD405500203C
:10AFF000044991F8C40B401C00F00F00C1F8C40BC9
:10B00000704700001C48002070B5002201211D4837
:10B01000FFF786FC50BBFFF789FF1B49A1F6C83438
:10B020000860D4F8C00BD4F8C42B411C01F00F0108
:10B0300091421BD000EB0011C1EBC010A4F580556C
:10B040004FF4DE7605EB800032460F49FCF73DFAFF
:10B05000D4F8C00B0D4B00EB0011C1EBC01005EB99
:10B06000800132460748FFF771FC08B1032070BD2C
:10B0700094F8C00B401C00F00F00C4F8C00B002077
:10B0800070BD000000F00700E4530020F1AF07009E
:10B0900070B50848084D401BC6080020044606E06D
:10B0A00005EBC40040688047002802D1641CB4420C
:10B0B000F6D370BD0CD0070004D007002DE9F04195
:10B0C00007460948094D401BC6080020044606E013
:10B0D00055F8341038468847002802D1641CB44221
:10B0E000F6D3BDE8F08100000CD0070004D00700C3
:10B0F00070B50F4C0025207808B1852516E0002199
:10B10000A16061602161E1604FF0E020D0F80001B2
:10B11000012610F0010F03D10721002000F056F89E
:10B1200000F054FA08B9034806602670284670BD3E
:10B13000C05500201805004008B500208DF800001B
:10B140006846FDF71BFF0648C168491EC160C0681C
:10B1500008B9FEF75DFD9DF80000FDF733FF08BD5F
:10B16000C0550020F8B5174D0446A878002648B110
:10B1700014B16168012088478DF800606846FDF7CA
:10B18000FDFE17E08DF800606846FDF7F7FE24B17C
:10B190000C4821461030FEF719FDE86850B94FF40D
:10B1A0008270FEF745FE02204107C1F804030649FC
:10B1B00001200860E868401CE8609DF80000FDF789
:10B1C00001FFF8BDC0550020080000404907090EE6
:10B1D000002806DA00F00F0202F1E02282F8141DC6
:10B1E00003E000F1E02282F8001400F01F020121C8
:10B1F00091404009800000F1E020C0F88012C0F8C2
:10B20000001170472DE9F0411F46154604000E4617
:10B2100016D02068B8B1C5B160680268501E3042CF
:10B2200015D16A432046FDF718FD80B120683B46E2
:10B230002A46D0F810C031462046BDE8F0416047AC
:10B240000E20BDE8F0810820FBE70920F9E7102077
:10B25000F7E720B119B101600B68114618470E20BD
:10B26000704700002DE9F04128B1016819B1C969A2
:10B27000BDE8F04108470D4D0D480024461B14273A
:10B280000DE000BF04EB840005EB8000016829B1EC
:10B29000C969884710B10120BDE8F081641CB6FB84
:10B2A000F7F0A042EED80020F6E700009C20002036
:10B2B000B0200020044801214174007A08B1002028
:10B2C0007047012070470000D85B0020012801D0A2
:10B2D000032808D10449002201284A7400D0002024
:10B2E000087400F0A7BE7047D85B002070B5254CED
:10B2F0000246207A012837D0022841D12248002373
:10B30000022A006802D0032A2ED11BE0E3600179F3
:10B3100011B1012928D10DE0D0E90565711B4FF469
:10B320008056B14200D33146294481614569A94222
:10B330000ED019E00169491C01614269914213D1A3
:10B34000237217E0E168491CE16008290CD9E36029
:10B350002372022A0ED00D21FEF790FB0B480A49FA
:10B36000091D0068FEF710FD607C28B1BDE8704043
:10B3700000F032B90021EFE7BDE8704000F05ABE9E
:10B3800070BD0000D85B0020902000203CCD07005D
:10B390002DE9F8431D46089F1646884604000DD047
:10B3A00066B1206860B135B160684068B5FBF0F106
:10B3B00000FB115030B10920BDE8F8830E20FBE7F7
:10B3C0000820F9E74046FDF742FC90B13046FDF712
:10B3D0003EFC70B12A4641462046FDF73EFC40B196
:10B3E000009720682B463246C76841462046B8473A
:10B3F000E2E71020E0E74FF0A04202EB80000321DB
:10B40000C0F8001770474FF0A04201218140C2F8F8
:10B410000C1570474FF0A04201218140C2F8081579
:10B4200070470000094902220A60BFF36F8FBFF323
:10B430004F8F0A1D106006480268002AFCD00020C9
:10B440000860BFF36F8FBFF34F8F704704E5014073
:10B4500000E4014070B50E4C01232360BFF36F8FF1
:10B46000BFF34F8F00230B4D08E000BF51F823605E
:10B4700040F823602E68002EFCD05B1C9342F5D36D
:10B4800000202060BFF36F8FBFF34F8F70BD0000AF
:10B4900004E5014000E4014020B10349096801606E
:10B4A000002070470E207047E4CE070060DF704731
:10B4B00030B593B05FF03805ADF8445011A903A83A
:10B4C00061DF30B1052816D013B0BDE83040FDF77C
:10B4D0003BBC03AC0949684600F0AAF807E000BF8E
:10B4E000D0E9002120469047684600F0B8F802985D
:10B4F0000028E1D0F4E713B030BD0000E8CE07002B
:10B5000010B50D4C2078A0B10120A07000F030FFE4
:10B5100011280CD0022000F043FF11DF002807D1D2
:10B520002070A07001F0F2F8032000F039FF002035
:10B5300010BD082010BD00009820002038B5174C21
:10B54000207808B1082038BD0125A570002000F042
:10B550000FFF112820D0002000F022FF10481149D1
:10B5600000680090684610DF0028ECD12570A070BC
:10B5700060700721162000F0AFFE08B1FDF7E4FB74
:10B580000721152000F0A8FE08B1FDF7DDFB01F052
:10B59000D9F8012000F004FF002038BD98200020D9
:10B5A0007CCE0700458D07000EB50749684600F0C0
:10B5B0003FF805E0D0E900108847684600F04FF8F2
:10B5C00002980028F6D10EBD98CE070001480078F9
:10B5D00070470000982000200548817819B1007854
:10B5E00018B1FFF78DBF08207047FFF7A7BF000015
:10B5F000982000201FB5684648DF30B1052814D0D8
:10B6000004B0BDE81040FDF79FBB084901A800F059
:10B610000FF806E0D0E900210098904701A800F05B
:10B620001EF803980028E6D0F4E71FBD04CF0700FA
:10B63000016009684160AFF3008010B5D0E90021D6
:10B640005368994201D1002104E0D1E90034A342BA
:10B6500002D01946816010BD08314160F0E7816871
:10B6600000290BD0026892680A44826041684B68E6
:10B670009A4203D108314160FFF7DFBF70470000F5
:10B6800002480068002800D00120704700040140F3
:10B690000EB50B7B2848072B10D2DFE803F00F080C
:10B6A0000411110F0C004A89032A07D108E04A89C6
:10B6B000062A03D104E04A89022A01D0032211E0BC
:10B6C00000220092019202920B7B072B0ED2DFE840
:10B6D00003F00D0E0429240D1D00B1F80D1081801A
:10B6E000C18001221946806800F0B4FD0EBD828839
:10B6F000C28001228DF800204A7B01924A7CD1F859
:10B700000E1062F31F610D4A02910FE006228DF8C0
:10B710000020497B0A4A019108E003218DF80010BE
:10B72000084A03E00421084A8DF800106946806841
:10B73000FFF72CFB0EBD000040200020D9BF070002
:10B74000E9BF0700E1BF0700C3BF070030B587B0FE
:10B75000002401940294039404948A1D8B79083187
:10B76000022B35D153888589AB4231D1127A042A14
:10B770002ED0062A2CD0052A2AD0022201238DF8A9
:10B7800004208DF80A300B89ADF80C304B890C3150
:10B79000CDE90414ADF81420104DADF80E30CDF8FD
:10B7A00018D0018A05AA6888A5DF18B96846FDF790
:10B7B00081FD30B1ADF8084001A96888A8DF50B11B
:10B7C00006E040F2FD10ADF8080001A96888A8DF86
:10B7D000002007B030BD0120FBE700004020002022
:10B7E000F8B50D4614460646694600F057FA00289B
:10B7F0000ED0009BFF2B0AD8581C834207D86978CB
:10B800000222B2EB911F02D02979814201D200209D
:10B81000F8BD2370611C3046009A00F069FBF8BD4A
:10B82000114600F0D6B8114600F0E3B8F8B50C4662
:10B8300015460646694600F031FA00280CD0009AF9
:10B84000501C904207D361780223B3EB911F02D0C2
:10B850002179814201D20020F8BD2946304600F00E
:10B8600047FB009A0021A954F8BD2DE9FF410C4681
:10B870008E6817460546694600F00CFB00280ED07E
:10B88000A06800280BD060783A46C0F30110022867
:10B890003146684606D000F0DBF80199696004B0D3
:10B8A000BDE8F08100F086F8F7E77CB50D46144658
:10B8B000694600F090F9002820D02879082806D0A1
:10B8C000042809D002280AD001280CD015E0DDE9AF
:10B8D0000001C4E900010AE00098206006E0009839
:10B8E00000B2208002E0009840B22070C117DDE96C
:10B8F000002350405940084301D000207CBD012066
:10B900007CBD7CB50D461446694600F0A2F90028BE
:10B9100020D02879082807D00021042809D002283F
:10B920000AD001280CD014E0DDE90001C4E90001CF
:10B9300009E00098206006E0009880B2208002E0D4
:10B940000098C0B22070DDE9002350405940084300
:10B9500001D000207CBD01207CBD7CB50D46144685
:10B96000694600F076F9002821D02979082908D005
:10B970000098C21704290BD002290DD001290ED03E
:10B9800014E0DDE90002C4E900020146134609E0C3
:10B99000C3170146206005E001B2218001E041B2F9
:10B9A0002170CB1741405340194301D000207CBD8A
:10B9B00001207CBD70B50D4606461446114628464A
:10B9C00000F083FA224629463046BDE8704000F078
:10B9D0003FB838B50C460422694600F089FA0028C1
:10B9E00006D09DF80310009861F31F6020600120CD
:10B9F00038BD1CB50C460822694600F079FA0028CB
:10BA000024D09DF801109DF800209DF80230080E0A
:10BA100042EA012242EA034240EA13409DF8033021
:10BA20009DF8041040EA132008439DF8051042EAEF
:10BA3000036240EA01209DF8061040EA01409DF8AB
:10BA4000071040EA0160C4E9002001201CBD00008D
:10BA50002DE9F04F04469DB000200090064601906D
:10BA60004FF0FF3A0AA800F051F94FF0010BE946F8
:10BA700082E012AB05AA06A9204600F0C9F850B131
:10BA80000AA8059900F053F960B10B98407810F0BE
:10BA9000300F53D060E09DF84800002870D11DB0F1
:10BAA000BDE8F08F0598B04242D30B9D0AAE0B98CB
:10BAB000407800F00F00082812D0304600F04EF910
:10BAC0000B98A842F3D156460599B14230D3D4F829
:10BAD000088009919DF8181008910E990D6820E0D2
:10BAE0000B980678F0E729680F682FB1DDE9083276
:10BAF00029462046B84711E011948968DDE90872AB
:10BB0000097891420CD1294617A8FEF76AF885F802
:10BB10000CB017AA39461198FDF7F3FC0028BED0E7
:10BB2000AD6815B1A1684145DDD0A168414523D17B
:10BB30009DF81810204600F017FA1BE00C984028DA
:10BB40000AD200F01F010BFA01F00C994A0959F8CA
:10BB50002230034349F82230E5682DB10AAB9DF845
:10BB6000182020460599A8470AAA9DF818102046D3
:10BB7000FDF7C7FC002892D0A06800287FF479AFB9
:10BB8000DDE90B0445780AA800F0E8F80028F7D1B1
:10BB900015F0300F03D10B98007800B1641CC4B1CC
:10BBA0000020494605E000BF51F82020521C0ED16C
:10BBB000401CB0EB541FF7D3600959F8201004F073
:10BBC0001F00C0F120022AFA02F0814201D00020B9
:10BBD00065E7012063E71CB50C46694600F039F8BB
:10BBE000002814D0DDE90002C10709D051084FEA4E
:10BBF00030006FEA00026FEA0100C4E9002004E0AF
:10BC000051084FEA3000C4E900014FF001001CBDAB
:10BC1000F8B507460020187008700E4610601C46E4
:10BC200015466946384600F039F801004FF001002A
:10BC300009D0009959B1C8082860009800F00700A1
:10BC400030700120F8BDB96809B10020F8BD20703E
:10BC5000FBE72DE9F8430026884681463446354601
:10BC600004E0402E02D30020BDE8F8836946484630
:10BC700000F06AF90028F7D09DF80070324607F00E
:10BC80007F00C10FFBF712FC29430443F61D0D464C
:10BC90003806E6D4C8E900410120E5E7F8B50E46CC
:10BCA0000746694600F050F900280AD09DF8004088
:10BCB000200616D5072504F07F0403E0202D01D3CC
:10BCC0000020F8BD6946384600F03EF90028F8D05B
:10BCD0009DF8001001F07F00A8400443ED1D080608
:10BCE000ECD401203460F8BD5968064A8968914255
:10BCF00006D1D0E90110044A401E491CC2E90010D7
:10BD0000704700008CCB070034200020C260002365
:10BD10000160C0E901138B781A44026191F9033084
:10BD20001A4442610878002800D00120704770B59D
:10BD300045680E46044660680178B14206D14078F5
:10BD400000F00F00082801D0012070BD204600F04F
:10BD500005F86068A842EED1002070BD30B541689A
:10BD60000A785AB101F10C0343600A7B42B14C7866
:10BD70000A79C4F30115032D07D00BE0002030BD74
:10BD8000C2680168FFF7C2FFF8E75D78C5F30115E7
:10BD9000032D07D00225B5EB141F09D14C7914FBF4
:10BDA00002F209E08D7804690022641B046103E05B
:10BDB000B5EB941F00D10422497811F0300F02D165
:10BDC0008168491C81609C780169214411440161AA
:10BDD00093F9032011444161012030BD30B5416821
:10BDE000002487B0497801F00F02082A11D08A098F
:10BDF0001ED00222B2EB911F09D10269C1F30111D9
:10BE00000229146001D0032901D14069047007B0F0
:10BE100030BD0069056808E02C7329466846FDF7C7
:10BE2000E0FE6846FFF7DAFFAD68002DF4D1EEE7DB
:10BE3000C1F30111012912D00229E6D00329E4D06F
:10BE40004268517801F00F0107290BD0916881B148
:10BE50001279006907B0BDE83040FBF736BB416995
:10BE60000C70EDE70169906807B0BDE8304000F064
:10BE70002CB81179006907B0BDE83040FBF73EBB34
:10BE800010B5034B002408C080E8160010BD000068
:10BE90005993070038B50D4604466946FFF7FEFE84
:10BEA00000280BD0D4E90002D4E90213C5E900024E
:10BEB000C5E902130098814201D2002038BDA86074
:10BEC000A168081AA060012038BD00B50A4687B0F5
:10BED00001466846FFF71AFF002807D06846FFF7BB
:10BEE0007DFF6846FFF73AFF0028F7D107B000BD95
:10BEF0007FB514460546A9B9124A2868904208D170
:10BF000010E0102269462846FFF7F2FF002807D00C
:10BF1000103C102CF5D8224669462846FFF7E8FF6A
:10BF200004B070BDA868A04201D20020F8E72B68D9
:10BF30002246284698470028F2D0A868001BA8602F
:10BF40000120EDE75993070010B5044680680028EA
:10BF500009D02368012220469847002803D0A06812
:10BF6000401EA060012010BD38B5002439B1012960
:10BF700012D0022912D005291DD0002038BD054657
:10BF8000012269462846FFF7B3FF90B19DF80000F3
:10BF90000006F5D4012038BD08220DE005466946AB
:10BFA000FFF77CFE28B100212846009AFFF7A0FF8A
:10BFB00038BD204638BD0422BDE838400021FFF7D7
:10BFC00097BF012903D00A46032100F043B9D2E903
:10BFD00001131A4600F0EEB80A46012100F03AB902
:10BFE0000A46042100F036B930B4012904D00A46CB
:10BFF00030BC062100F02EB9D2E900149368224625
:10C0000030BC00F0FBB8000010B5094CA188002935
:10C010000DD0E188491E0904090CE18007D122B145
:10C02000D2E901131A4600F0C5F8A088E08010BDDF
:10C03000402000202DE9F041214C0025214E207A9E
:10C04000012730B92048311D0068FDF7A8FE306097
:10C0500038B1022020723168087928B101281ED138
:10C0600016E06560BDE8F081D1E90503C01A4FF420
:10C070008052904200D31046B7EB900F01D2820855
:10C0800000E001220869C9681844194429DF03E067
:10C09000D1E90301084428DF38B111280ED003216B
:10C0A0003068FDF7EBFC2572DBE7207C0028D9D156
:10C0B000BDE8F04100210220FFF718B92772D1E74F
:10C0C000D85B0020902000203CCD070038B5084CFC
:10C0D0000121201D6A46FBF789F90090002806D14E
:10C0E000607C002803D1BDE83840FFF7A3BF38BD0E
:10C0F000D85B002010B510461A46FBF7E6F9002081
:10C1000010BD10B510461A46FBF7DFF9002010BD30
:10C110002DE9F0411E681C461546074621B101294C
:10C1200018D0052923D119E000202060401C206090
:10C13000B0421CD8012229463846FFF7D9FE002814
:10C1400006D015F8010B000601D52068EEE70120A6
:10C15000BDE8F08108200246186002E00420024693
:10C16000186029463846BDE8F041FFF7C1BE0020FF
:10C17000EEE7000010B50020FFF774F8002812D198
:10C180000948007900280ED0FEF782FFBFF34F8FD9
:10C1900006480168064A01F4E06111430160BFF3FB
:10C1A0004F8F00BFFDE710BDF01F00200CED00E039
:10C1B0000400FA05F0B585B00546164660200A462B
:10C1C0008DF8000003218DF8011001206C468DF8D8
:10C1D00002001046E11C00F01DFCC71CE1193046AE
:10C1E00000F018FCC31904486A468189284600F00B
:10C1F000EDF805B0F0BD00009C3600202DE9F041BF
:10C2000086B00546164660200A468DF800000621D5
:10C210008DF8011001206C468DF8020098461046FA
:10C22000E11C00F0F7FBC71CE119304600F0F2FBFF
:10C23000C619A119404600F0EDFB831904486A466F
:10C240008189284600F0C2F806B0BDE8F081000000
:10C250009C36002030B5054685B060208DF8000082
:10C260008DF8011003248DF802200B2A07D1FDF769
:10C270002DFC8DF8030004240020FDF72FFC04485A
:10C2800023466A468189284600F0A0F805B030BDF3
:10C290009C360020084670470846704770B5012656
:10C2A00070044FF0E0210025C1F88001084C4010D7
:10C2B000C4F84803C4F8080366602F20FDF766FF42
:10C2C000A660044C2F20A560FDF760FFA57070BD2F
:10C2D000001001407820002070B50D460446FCF7A0
:10C2E00099FC70B12846FCF7A7FC68B16807000EFE
:10C2F000002C0CDA04F00F0101F1E02181F8140D9B
:10C3000009E042F2010070BD42F2020070BD04F18A
:10C31000E02484F80004002070BD000038B500213E
:10C32000012558B101280ED003280BD10721002088
:10C33000FEF74CFFBDE83840FEF7FEBE4FF0E020B0
:10C34000C0F8805138BD8DF800106846FCF716FE25
:10C35000064C207808B9FEF7CBFEE068401CE06090
:10C36000A5709DF80000FCF72DFE38BDC0550020DB
:10C370003EB5044609496846FFF75AF908E000BF90
:10C38000D0E900212046904730B16846FFF767F9B1
:10C3900002980028F4D13EBD11203EBD80CE07009A
:10C3A0003EB5044608496846FFF742F907E000BF7A
:10C3B000D0E90021204690476846FFF750F90298DF
:10C3C0000028F5D13EBD00008CCE07003FB5124CD1
:10C3D000034685B06088A0F57F45FF3D1AD0A5686B
:10C3E0009D4217D1237BDB0714D000230093ADF8C7
:10C3F000001001218DF8021008A9CDE90212019365
:10C400006946A6DF002805D0A068401CA060132163
:10C41000608876DF09B030BD4020002070B5164638
:10C420000D46040007D035B1206C80220021382849
:10C43000225403D307E00E2070BD2154401C38283D
:10C44000FBD30BE02154401C4028FBD32146084677
:10C4500000F096F838212046FBF750F8216CD4E91B
:10C4600012304A0FC900383459185041C4E9041039
:10C47000227CE2710A0A42EA0062A2710A0C42EAD4
:10C4800000426271020242EA116020716069E0704C
:10C49000010AA170010C6170000E04F838092146F0
:10C4A000084600F06DF84FF00002EEB1E06ED100EA
:10C4B000C840A854A36ECB40A8180371636ECB404C
:10C4C0000372236ECB400373E36DCB400374A36D03
:10C4D000CB400375636DCB400376236DCB40521C7C
:10C4E0000377042AE2D31FE018235042216D03EBA7
:10C4F000C000C140A954666DC640A9180E71A66D52
:10C50000C6400E72E66DC6400E73266EC6400E74AF
:10C51000666EC6400E75A66EC6400E76E66EC640C6
:10C52000521C0E77042AE0D3002070BDA8B1002170
:10C530000164C0E912110A4901650A4941650A49C5
:10C5400081650A49C1650A4901660A4941660A4985
:10C5500081660A49C166002070470E2070470000BE
:10C5600067E6096A85AE67BB72F36E3C3AF54FA584
:10C570007F520E518C68059BABD9831F19CDE05BB0
:10C580002DE9F04FC8B0002213466F46CC181B1D92
:10C590002568E4782DBA25F0FF05254347F8225099
:10C5A000521C102AF2D31BE007EB820151F8083C21
:10C5B0004FEA734484EAF34484EA932451F83C3C00
:10C5C0004FEAF31585EAB34585EAD303234451F8CE
:10C5D0001C4C51F8401C2144194447F82210521CAD
:10C5E000402AE1D3036D4793416D4691846D459494
:10C5F000C26D44929246026E4392456E4295A946A0
:10C60000856E4195C66E4096B34600264FEAB21736
:10C6100087EAF22787EA726C02EA090725EA02082C
:10C6200087EA0807BC44204F57F8268008EB0B0721
:10C63000BC445DF82670AB460CEB070E4FEAB3071F
:10C6400087EA733787EAB35C81EA04074D4601EA5B
:10C65000040891461F400AEB0E02A24687EA08072B
:10C660000C46BC441946761C0EEB0C03402ECDD371
:10C67000479E33440365469B1944416545992144CF
:10C68000816544995144C1654399114401664299B9
:10C690004944416641992944816640995944C1669B
:10C6A00048B0BDE8F08F00006CCD07002DE9F041E7
:10C6B00016460F46040004D006B317B10025A8465D
:10C6C0001AE00E20BDE8F081216C785D6054206C8A
:10C6D000401C206440280ED121460846FFF750FF39
:10C6E000D4E912014FF40072801841F10001C4F83E
:10C6F0004080C4E912016D1CB542E5D30020E1E79A
:10C70000002801D1FCF736BE7047000010B5162096
:10C71000FCF780FA48B10A4882684FF4800152B1B0
:10C72000016821F48001016010BDBDE8104042F2B3
:10C730000100FCF709BB4FF0E020C0F8801110BDEC
:10C74000E056002010B51620FCF764FA80B10F48BF
:10C7500090F800044009FCF76FFA60B10C48826859
:10C760004FF480016AB1016841F48001016010BD9D
:10C7700042F2010001E042F20200BDE81040FCF785
:10C78000E3BA4FF0E020C0F8001110BD16E000E061
:10C79000E0560020FDF7C4B87047000010B5FEF762
:10C7A0006FFF002810D0094A01210948FCF754FB0B
:10C7B00040B9074800224FF480410068FCF78AFB2B
:10C7C000002801D0FCF74EF810BD000099C7070003
:10C7D000ACCC070070B5FEF753FF002811D0002045
:10C7E000084A094B094C0121166801FA00F52E424E
:10C7F00003D004EB8005C5F80036401CC0B2072802
:10C80000F2D370BD080501403546526E000001406C
:10C8100010B50446082902D00020FCF795FAD4E9A7
:10C820000010BDE8104008472DE9F84F1D4C0025C9
:10C830006846D4E901A6FDF79BF8002738B300232A
:10C84000009A61681CE0D1F800C00846944503D9FD
:10C85000ACEB02020A6015E0A2EB0C026344076035
:10C86000D0F80CC0C1698146BCF1000F08D006EBBE
:10C87000030828F07F48C0E9018CC9F81C50054620
:10C880000029E0D128466160FDF7D6F903E028468B
:10C89000FDF7D2F910B15046FCF780FDE770BDE816
:10C8A000F88F0000782000200D4B10B5596831B189
:10C8B00002680C68A24204D8A21A0A60C1615860DA
:10C8C00010BD0B4603E00B46C969121B21B10C6871
:10C8D0009442F8D3A41A0C600260C161D86110BD03
:10C8E000782000202DE9F041144E77683D462C4613
:10C8F00003E0844204D02546E469002CF9D11BE012
:10C90000D4B1A5420BD1F869706040B90C4901203F
:10C9100088600021B160F0702F20FDF737FC21689E
:10C92000E069E86110B102681144016070688742F3
:10C9300002D00120BDE8F0810020FBE77820002034
:10C94000001001407CB5064600240D468DF80040DD
:10C950006846FCF713FB01A800F07EF870B1057083
:10C96000094946609DF8040048709DF80000FCF7F6
:10C9700029FB1420FBF75AFF20467CBD04249DF8B8
:10C980000000FCF71FFBF7E7D45500202DE9FC4120
:10C990001D4D6C68002C35D01C4800270068A96824
:10C9A000B846401A20F07F462068B04215D8361AA3
:10C9B00007442046E469017C69B180F81080416930
:10C9C000009180690190124A08216846FCF7BEF97F
:10C9D00008B1FCF7B9F9002CE6D1297868788142D2
:10C9E00006D1401CC0B26870022801D185F80180D0
:10C9F000054869780C3040F82170BDE8FC411420EE
:10CA0000FBF714BFBDE8FC8178200020041501402D
:10CA100011C807000870020A4A70020C8A70000EE2
:10CA2000C87004207047000010B50248FDF7CDF92A
:10CA3000002010BD8C20002010B514210448FAF706
:10CA40005DFD04480068FDF779F9002010BD000085
:10CA5000D85B00203CCD07000A494A788B78521CED
:10CA6000D2B2934200D100220B78934201D1002030
:10CA700070470270487800EB400001EBC000001DD9
:10CA800070470000D45500200020704700207047F8
:10CA90002DE9F84380461C4617460E460C48089D73
:10CAA000FDF79AF910B11120BDE8F883A2083946C4
:10CAB0003046FEF7CFFC0648FDF787F9234632469D
:10CAC000012140460095FCF7BDFF0020ECE7000087
:10CAD0008C2000202DE9F84F114D884681461E46D6
