:020000022000DC
:103000000000012049BF040071BF0400096D0400E5
:1030100075BF040077BF040079BF04000000000002
:103020000000000000000000000000007BBF040062
:103030007DBF0400000000007FBF040081BF0400CA
:1030400083BF040083BF040083BF040083BF040068
:1030500083BF0400B5C7030083BF040083BF04001F
:1030600083BF040083BF040083BF040083BF040048
:1030700083BF040083BF040083BF040083BF040038
:1030800083BF04001D96040083BF040083BF0400B7
:10309000557D040083BF040065CF030083BF040097
:1030A00083BF040083BF040083BF040099CC0300E6
:1030B00083BF040083BF0400000000000000000084
:1030C00083BF040083BF040083BF040083BF0400E8
:1030D00083BF040083BF040083BF0400000000001E
:1030E00000000000000000000000000000000000E0
:1030F00000000000000000000000000000000000D0
:1031000000000000000000000000000000000000BF
:1031100000000000000000000000000000000000AF
:10312000000000000000000000000000000000009F
:10313000000000000000000000000000000000008F
:10314000000000000000000000000000000000007F
:10315000000000000000000000000000000000006F
:10316000000000000000000000000000000000005F
:10317000000000000000000000000000000000004F
:10318000000000000000000000000000000000003F
:10319000000000000000000000000000000000002F
:1031A000000000000000000000000000000000001F
:1031B000000000000000000000000000000000000F
:1031C00000000000000000000000000000000000FF
:1031D00000000000000000000000000000000000EF
:1031E00000000000000000000000000000000000DF
:1031F00000000000000000000000000000000000CF
:1032000010B5054C237833B9044B13B10448AFF320
:1032100000800123237010BDE02A00200000000080
:1032200094A1050008B5034B1BB103490348AFF354
:10323000008008BD00000000E42A002094A10500E1
:10324000154B002B08BF134B9D46A3F5803A002178
:103250008B460F461348144A121A2AF009FF0F4BE7
:10326000002B00D098470E4B002B00D09847002031
:10327000002104000D000D48002802D00C482BF05E
:10328000EDFD2AF079FD2000290007F0D9FF2AF092
:1032900063FD00BF000008000000012000000000E6
:1032A00000000000E02A0020148400205DEE0400ED
:1032B00069EE04000A4A0B4B30B401241470014635
:1032C000002253E8000F00EA020443E8004595F0AD
:1032D000000FF6D111B1044830BC084730BC70472C
:1032E000EC690020E8690020886A0020044A054B48
:1032F00010680122B0FA80F040091A70704700BFD0
:10330000986F0020966F00203BDF70473ADF7047D0
:10331000A8DF7047A5DF704774DF704773DF704721
:103320000B7893B900B5094B49781B68C2895B6B70
:1033300085B001A88DF808100C21ADF80A208DF891
:103340000410984705B05DF804FB7047446A0020FC
:103350008FDF704780DF704710B40430012350E8DE
:10336000002F02EB030140E8001494F0000FF6D1A7
:103370005DF8044B704700BF30B4104A8368D2F840
:1033800004250F4DD0E90041D21A22F07F42642378
:1033900003FB02F3A5FB035304F28A24857B0A4452
:1033A000C3F34723C0E90042027B43739D4238BF09
:1033B00083739A4288BF037330BC7047001001408A
:1033C000FD33A6C90388102B07D0502B04D1C28827
:1033D000CB889A4204D0704770478388CB8170476E
:1033E000038A012BF7D100B583B0837C8DF80530BB
:1033F00000238DF8043008460B6801A9984703B0F4
:103400005DF804FB70B4867C76B1838A8B4236D03B
:103410000446002302E0A58A8D4231D00133DBB29D
:103420009E4204F10A04F6D190F8786086B1B0F8B3
:103430007A308B422CD00446002303E0B4F87A5053
:103440008D4226D00133DBB2B34204F10A04F5D138
:1034500090F8DE4084B3B0F8E0308B4218BF002310
:1034600004D11FE0B0F8E0508D421CD00133DBB234
:10347000A34200F10A00F5D1002070BC7047002380
:1034800042F64D210120D3701180907070BC7047BE
:10349000002342F64D2002211080D370012091704C
:1034A00070BC7047002342F64D2003211080D3707A
:1034B0000120917070BC70472046E7E7A4DF704799
:1034C000024B4FF40012C3F80021704700E100E006
:1034D000024B4FF40002C3F80021704700E100E006
:1034E00030DF70472FDF704760B910B5064CA36816
:1034F0003BB11A68A2605B6800209847A368002B64
:10350000F7D110BD704700BF3C64002070B52DEDB1
:10351000028B82B090B1544B002253E8004F04EA72
:10352000020543E8005696F0000FF6D14F4B1B689A
:1035300002B0BDEC028BBDE8704018474C4C2279BC
:10354000D50628D50880488094F9063003EBD3735C
:103550005B100B7194F9053003EBD3735B104B7167
:10356000E37813F0080208D1D80752D49A076AD535
:10357000404A012313708B7101E001238B713A4B98
:10358000002053E8002F02EA000443E8004595F0CC
:10359000000FF6D1CAE794F9003008EE103AB8EE01
:1035A000C88AB5EEC08AF1EE10FA4CBFB1EE480AF7
:1035B000B0EE480AB5EEC00AF1EE10FA2BDADFEDF4
:1035C0002E8A28EE288ABDEEC88A18EE103A0B80A3
:1035D00094F9013008EE103AB8EEC88AB5EEC08A08
:1035E000F1EE10FA4CBFB1EE480AB0EE480AB5EE63
:1035F000C00AF1EE10FA1ADADFED1F8A28EE288AE7
:103600000023BDEEC88A8B8018EE103A5B424B80D7
:10361000A6E78A71B3E7B5EE400AF1EE10FAF1EED3
:10362000C08ACED501912BF09FFC0199C9E7B5EE78
:10363000400AF1EE10FAF1EEC08ADFD501912BF0CD
:1036400093FC0199DAE75B0797D40C4B5A783AB9A7
:103650009B7813F0030303D1064A8B7113708EE736
:10366000044B1B788B718AE76C690020F071002095
:10367000BC810020FC2A002000000000C481002042
:10368000704700BF30B5254A85B04FF6FF7312680A
:10369000ADF808308DF80A3014680D4684B15269CF
:1036A000136898424FF0000308BF8DF8083004D12A
:1036B0000BE052F80C1F81421DD00133A342F8D118
:1036C000174A5221002024F06BFE2B78019500222E
:1036D000042B8DF80B2014D0072B05D0114B01A81B
:1036E0001B68984705B030BDEA79AB798DF80A20A0
:1036F0008DF80930F2E7DBB2FF2B8DF80830E4D10A
:10370000DEE7E879A979EA686B898DF80A008DF817
:10371000091003928DF80B30E0E700BFFC45002054
:103720005C0205000046002000B97047024A40F2E2
:10373000F52124F035BE00BF88020500072800D01F
:1037400000B97047024A4FF4317124F029BE00BF1E
:103750008802050070B503681B7884B00446072B07
:103760003BD8DFE803F01D1D1D1D0430351F8068A8
:1037700000283AD0204BA179039026791B686579FF
:10378000E2798DF80A1002208DF804008DF80860A7
:103790008DF809508DF80B205B6B0C2101A8984720
:1037A00004B070BD144B017982798DF808101B6844
:1037B0008DF8092003218DF804105B6B0C2101A802
:1037C000984704B070BD0D4B01221A7004B070BD53
:1037D0000A4B00221A7004B070BD094A40F2B721AA
:1037E000002024F0DDFD04B070BD054A40F29B21AD
:1037F00024F0D6FDA068BDE7446A0020DD6D0020FE
:1038000088020500024A40F2BA41002024F0C8BDF7
:10381000B002050000B97047014AEC2124F0C0BD98
:10382000D40205002DE9F04F884681B000284DD123
:10383000DFF8D4A0DFF8D4B02F4FDFF8C490002316
:103840008AF800309C461D469E461E468BF8003086
:1038500017F8010FE0B100210B4620FA03F2D2075E
:1038600001F101040AD5052DE1B207D846EA031299
:103870006C1C09F805204FF0010CE5B20133082B50
:10388000EBD110EA0E0F01D0012924D840EA0E0E28
:103890000136082EDCD1BCF1000F29D1174B0022D4
:1038A00053E8001F01EA020043E8000494F0000F0F
:1038B000F6D1B8F1000F15D09BF800209AF800104F
:1038C0000F48434601B0BDE8F04F18470D4A9B2111
:1038D00024F066FDACE7BCF1000F06D101238BF8A4
:1038E0000030DBE701B0BDE8F08F8AF80050F5E763
:1038F0008AF80050D2E700BFFF2A0020C46D0020E4
:10390000C86D002008030500CF6D0020CE6D00209B
:103910004B4B1B7B03B1704730B54A4C94F82C30AD
:1039200083B0002B60D094F82D30012292FBF3F28B
:1039300003FB02F3012B51D1434B1222C3F808239E
:10394000217C02292ED0227CD2B2012A26D0022547
:1039500094F82E003D4961600122C3F8045300250C
:103960002274E5602281002844D1394DC3F82C1619
:10397000C3F8302628602968009100991A6094F8ED
:103980002C30D3B1237CDBB2012B1FD194F82E2035
:10399000002A37D12F4A136003B030BDE1680029F7
:1039A00033D00222C3F8042383212B4A112024F0B0
:1039B000F7FC94F82C30002BE4D1284940F2152074
:1039C00022F0CEF8237CDBB2012BDFD0224A842107
:1039D000082003B0BDE8304024F0E2BC1F494FF49A
:1039E000E97022F0BDF8A7E71C4940F2D11022F09F
:1039F000B7F898E794F82D00C3F82C166283C3F843
:103A00003006BCE7104A1360C6E794F82E300F4921
:103A10002283E16073B90E4A1368002BFCD00023A7
:103A200013601268084B019201220198C3F82C160A
:103A3000C3F83026044B0222C3F804239FE700BFDB
:103A4000FC2A0020B4710020007000400A2B0020E6
:103A50000071004004700040780305003803050041
:103A600010B50446002849D0238840F2032293422F
:103A700059D0B3F5017F11D3B3F5806F57D026D954
:103A800040F2015293421ED03DD940F2025293427D
:103A90004BD0B3F5C06F25D1294810BD40F20112BB
:103AA000934246D0B3F5817F20D3B3F5007F0CD08D
:103AB0002ED940F2012293422FD040F202229342AB
:103AC00010D1204810BD204810BD204810BD40F244
:103AD0000132934225D040F2023293421FD0B3F517
:103AE000407F01D01A4810BD1A4810BD012B24D0C8
:103AF00021D3B3F5807FF5D1174810BD1749422077
:103B000022F02EF8B0E7B3F5A06FEBD1144810BD4A
:103B1000B3F5817FE6D1134810BD134810BD13489B
:103B200010BD134810BD134810BD134810BD1348F5
:103B300010BD134810BD134810BD134810BD00BF81
:103B4000C804050018040500A004050000040500D1
:103B5000D804050034040500D4030500E004050082
:103B60008C040500F00305000C0405006404050046
:103B70004C04050028040500B40405007C0405007D
:103B8000E0030500A0030500BC03050000B50B4BD6
:103B90001B7883B01BB10A49682021F0E1FF094A74
:103BA000094B002111601268019201990122C3F8AA
:103BB00004231A6003B05DF804FB00BF3437002013
:103BC0000405050000D1004000D0004010B5FFF70B
:103BD000A3FB044638B9094B5A68022A05D8084B9A
:103BE00000221A709A70204610BD1888054A0649AE
:103BF000000440F0030017F09DFDF0E75C29002071
:103C00009871002080FB04004005050010B50C46AB
:103C100040F6772223881D49934284B0486812D029
:103C20004DF67A22934203D1022824D804B010BD65
:103C30000128FBD908881649000440F0020017F05B
:103C4000C3FF04B010BD0228A28807D90888114913
:103C5000000440F0030017F06DFDA2880E4B8DF8B4
:103C600008201B680E225B6B8DF804200C2101A834
:103C7000984704B010BD088822790849000440F034
:103C8000030017F057FD04B010BD00BF4429002009
:103C90009805050064050500446A002080050500BC
:103CA00010B5104C6368022B01D8012010BD20888C
:103CB0000D4B0E491A79000440F0030017F03AFD4D
:103CC0006368022BF1D90A4B20881B68094A0A490C
:103CD000D21A000440F00300D2B217F02BFD0120ED
:103CE00010BD00BF0829002080810020B405050018
:103CF0007477002072770020E405050008B5074BB3
:103D00005A68022A08D91888054B06491A7900040E
:103D100040F0030017F00EFD012008BDC028002070
:103D200014740020100605002DE9F041354D364E83
:103D30000FCD86B001AC0FC433782A682260032B04
:103D400002D006B0BDE8F081304E3378022BF8D8AF
:103D500000252F4CDFF8C8802F46237C0133DBB2CF
:103D6000042B22D801211A46237401FA03F31D42C1
:103D7000F3D106AB03EB82020DF1030052F8143CC1
:103D8000984740BB9DF80330032B2AD8DFE803F0A7
:103D900015110202227C012393401D431F2DD0D018
:103DA000237C0133DBB2042BDCD9277401230022EE
:103DB000DDE7237C013B2374C3E73378D8F8042084
:103DC0000133DBB2032A337011D8124A11789942B9
:103DD000C3D21370C1E7104A4FF47D7124F0E0FAAA
:103DE000D0E70D4940F2144021F0BAFEA9E7B8F837
:103DF0000000227C0949000440F0040017F078FB21
:103E00003378E2E794FB0400D06D0020D16D0020F0
:103E1000FC2A0020D26D0020B002050040060500FB
:103E20003829002038B5104C0C22002104F1140070
:103E30002AF01EF90C22002104F120002AF018F9C2
:103E4000FF251022002104F12C0084F828502AF0CC
:103E50000FF904F13C001022002184F838502AF0B8
:103E600007F984F8485038BDFC2A002007282DE9BE
:103E7000F84306466BD8404C94F82C30002B70D099
:103E8000237C002B75D106F10C0204EB42031B7955
:103E900023B194F82D30013B84F82D3035B22B013D
:103EA00003F1804304EB420203F5E04394F82C0055
:103EB0000021C3F814151171C3F81015517138B3EE
:103EC00023686BB3DFF8B8902C486D006A1C4FF084
:103ED000004309EB0611D340072E4FF080026FEA32
:103EE0000307C1F81C0502FA05F81FD86369C9F871
:103EF00008833B404FF000412148E940402223EA3B
:103F00000103AA406361C0F808230020BDE8F883DC
:103F10001C494FF41A7021F023FE2368002BD1D1E5
:103F2000184940F2692021F01BFECBE7164940F208
:103F3000E31021F015FE63691349C9F808833B407B
:103F400040F2E310636121F00BFE6369D2E70A4C93
:103F50000C494FF4B67021F003FE94F82C30002B7E
:103F60008ED1084940F26D1021F0FAFD237C002B20
:103F700089D01120BDE8F883B471002000F8FF0754
:103F80000070004038030500500605002DE9F04F91
:103F9000984B02685C6846688568022C8DB040F2D8
:103FA00000811B880193002A40F0FE8014461346CE
:103FB000DFF864A2CDE90612CDE90865CDE90A4330
:103FC000DAF80880EFF3108472B68B4A9068002804
:103FD00040F0048189498A4E01259560D1F88050CE
:103FE00035401560C1F88060D1F8845055604FF0BD
:103FF000FF320090C1F8842004B962B6DAE90114F6
:10400000DAF8009062180132A2EB09020B2A00F2E2
:10401000EE807C4FDFF8FCB13E1F012557E8002FF2
:1040200042EA050047E8000C9CF0000FF6D156E884
:10403000002F42EA050046E8000C9CF0000FF6D184
:1040400001EA0400033002910AEB800004E00298C8
:10405000204003300AEB800002A916F075FE00280C
:10406000F5D1029A02EA0400511C0AEB80002140BB
:1040700002F1020C0AEB8101C368C96804910CEAE1
:1040800004040AEB840403F00301E06805900332A2
:104090000129CDE9022300F09A80022940F09180A5
:1040A000BDF80E108909033102EB91020292002241
:1040B00056E8001F01EA020046E8000494F0000FF1
:1040C000F6D100297AD00299CAF80410DAF808402B
:1040D000DAF80000621C121A0A440B2A9ED9044026
:1040E00006250334052100F1090265F389110098C2
:1040F0004AF8241009F10905CAF8002023F0FAFA59
:1041000009F1030206A808EA02010AEB8101013263
:1041100050F8044BCC60AA42F5D13B4A3B49019D83
:10412000521AB5EBD20F5CD209F1010202EA080281
:104130000AEB820209F10204D560DAF80C249047F8
:1041400004EA08040AEB840408EA090808F10308F1
:10415000E0601AF828202E48032161F3C5020AF80E
:1041600028203AF82820062161F389122AF828200D
:104170005AF8281060F39F210A46012060F30102DB
:104180006FF382024AF828100AF828209AF81C24B3
:104190001AB906E016F00AFE18B1DAE900219142D8
:1041A000F8D10DB0BDE8F08F642303FB06F403FBE8
:1041B00005F3B4FBF2F4B3FBF2F3F9E6DAF804101A
:1041C00084E759464FF4B77021F0CAFC6FE7BDF899
:1041D0000C10C1F383110A44029268E70123009393
:1041E0000AE70C4940F2851021F0BAFC9CE74846EA
:1041F00075E700BF202900202440002000E100E0F6
:10420000FC06FFBDC8450020A0A30500F0A10500E5
:10421000DC0605008C060500B04100202DE9F04FBA
:10422000BC4EF9B04FF6FF7416A810220021ADF86D
:104230003E4029F01DFF337833B120461DF088FB46
:10424000A042054640F0C080DFF8D88298F80030E0
:10425000013B032B00F25281DFE803F002021ACE89
:1042600098F80330ADF83E500133012288F803304E
:10427000002388F804200293284622A91AF0D6F8D1
:104280000546002800F0CC80284679B0BDE8F08FC4
:104290000023BDF83E5088F804304FF6FF739D426E
:1042A00040F0BB843378002B00F0238100221146BC
:1042B00010461DF0D7FE05460028E5D10290029A6F
:1042C0003378002A00F00481002B00F01281924F15
:1042D0001022002107F14C0029F0CAFE00254FF002
:1042E000010A02220DF13E011AAC0DF5947B07F193
:1042F0004C0087F85CA029F0BDFD294638225846BD
:10430000256029F0B5FECDE9005523465A465146B1
:104310000DF13E001DF01CFE05460028B4D10DF243
:104320002F130DF59B7237930DF23D13389239938D
:1043300051AA0DF24B130DF1D8093A923B930DF5AA
:10434000A9720DF2591351464846CDF8D8B03C92A7
:104350003D931DF089FE0546002D95D198F8044047
:10436000002C00F00781012C40F075816B4B03930A
:104370005B688DF858400DF199010422022BADF8CD
:104380006450179188F8052000F2E9820DF5947BBE
:104390001AAC41F61203012598F8056023803C22EF
:1043A00000215846A57029F063FE02238DF82831BC
:1043B00073078DF82A518DF82B61ADF838514F9461
:1043C00000F1E58507255FE71DF0C2FAA04240F045
:1043D0009E80DFF8508198F80030013B032B00F2FB
:1043E0008D8001A252F823F0614202006142020076
:1043F00029450200F943020098F80330ADF83E5019
:104400000133002288F803302846012322A988F8C6
:10441000042002931AF00AF8054600287FF434AF0E
:104420003378002B65D00DF5947B502329460DF190
:10443000D809B822584612930393CDF8509029F02A
:1044400017FE039B1AAC1A460DF23F132946C4E926
:1044500000B30DF5AB750DF26D13A560E36061ADB2
:104460000DF29B13256163610DF5D9750DF2C9132A
:104470000DF14C0A12AF4846C4E9065329F0F8FD85
:104480003B4652460721BDF83E001DF02DFD20F0B1
:104490000205052D3FF4F8AE99F81130032B88BFC3
:1044A00043F202253FF6F0AE17220DF1D90158462E
:1044B00029F0E0FC2046012200211DF0D3FD054635
:1044C00000287FF4E1AE029A3378002A7FF4FCAE34
:1044D0007BB1029C104F1022214607F14C0029F0BD
:1044E000C7FD2146204687F85C401DF0BDFD05460E
:1044F00032E70825284679B0BDE8F08F084A40F237
:10450000E521002023F04CFFBDF83E50C5E6042510
:10451000BAE600BF25660020FC2A00205C290020A6
:104520004807050098710020002108464AAA0EF0AD
:1045300079F8054600287FF4A7AE3378002BD8D051
:10454000BDF828011DF0ECFE054600287FF49CAE66
:10455000924BBDF828215968022908D9188890493A
:10456000000440F0030017F0E5F8BDF828218D4B5A
:104570001A8089E6894B03935B688DF85850022BAB
:1045800000F24183029A002A67D1032B00F2D484FF
:10459000854B1B689B8BADF8623005250022B42348
:1045A00088F805508DF86020ADF864300DF5947BE7
:1045B0000DF14C0A0DF1D8091AAC41F6120301268F
:1045C0003C22238000215846A67029F051FD02228A
:1045D0001F238DF82A61ADF838618DF82B514F9467
:1045E0008DF82821AAF800305246494658461EF058
:1045F00053FA054600287FF447AE2B462A469AF820
:10460000001048461EF01CFC054600287FF43CAE16
:1046100016A80121FEF782FE054600287FF434AE7D
:1046200098F804300122934288F8022000F0988420
:1046300098F80030032B00F09C840622BDF83E3031
:104640008DF82821584AADF82C31136858465B6B19
:104650000C21984718E6032516E6032B00F2768412
:1046600032780823CDE91033002A00F0DA8297F877
:104670005C10082900F2D58210AB0DF1D8090DF5B8
:10468000947B01934A46CDF800B011AB47481DF02A
:104690005FFC002840F08884119B002B00F0808490
:1046A000434B444ACDF828809B1ADB081AACCDE96D
:1046B0000B9B09934F460DF14C0A80460694DDF89A
:1046C00010B007E0119B08F10108984507F10707B2
:1046D00080F0C082039B5B68032BF3D9DFF8E8907E
:1046E0007A79D9F808300593069B3D795A60FC78B1
:1046F000B8787978BA791A609D60DC601861596180
:10470000039B1B880893EFF3108472B62A4A9168C2
:10471000002940F09C822948294B01259560D0F85A
:10472000805025F0844525F4794525F00305156072
:10473000C0F88030D0F8845055604FF0FF320791B8
:10474000C0F8842004B962B6D9E90115D9F800305F
:1047500004936A180132D21A0B2A00F2138412ACA5
:1047600001260297174F57E8003F43EA060247E841
:10477000002090F0000FF6D1043F57E8003F43EAD5
:10478000060247E8002090F0000FF6D101EA05008C
:104790000330216009EB8000029F1CE05C290020AF
:1047A000300705007821002090710020482B002060
:1047B000A0A30500F0A105002440002000E100E0D6
:1047C000FC06FFBDC8450020B041002020682840FD
:1047D000033009EB8000214616F0B6FA0028F5D127
:1047E0002368029703EA05015A1C02EA050009EB57
:1047F00081019A1C154009EB8002C868D268CAF88A
:10480000042009EB850500F00302E968CAF80810E6
:104810000333012ACAF80000236000F09980022ABD
:1048200040F09080BAF802209209033203EB920321
:10483000236000237E4D55E8002F02EA030145E87E
:10484000001090F0000FF6D1002A78D02168C9F846
:104850000410D9F80850D9F800006B1C1B1A0B443F
:104860000B2B7FF67FAF029F012100EA050261F367
:10487000010B033206254BF0040B65F3891B00F195
:10488000090149F822B00798C9F8001022F032FF58
:10489000049B0698059CD91C03F1090504EA010351
:1048A00009EB8303013150F8042BDA60A942F5D1FA
:1048B000DDE90863B34204D85E4940F2851021F077
:1048C0004FF9049C059B621C1A4009EB8202A51C4F
:1048D000D660D9F80C241E461D40904709EB85058B
:1048E00006EA04020332E86019F82210524C042050
:1048F00060F3C50109F8221039F82210062060F390
:10490000891129F8221059F8220064F39F200146EA
:10491000012464F301016FF3820149F8220009F8D0
:10492000221099F81C242AB9CCE616F03FFA002888
:104930003FF4C8AED9E900329A42F6D1C2E6D9F8BE
:10494000041086E73B494FF4B77021F009F970E78E
:10495000BAF80020C2F383121344236069E7039E70
:1049600036493088000440F0030017F02DF97368D1
:10497000032B7FF60BAD179ADFF8D0A05379177988
:10498000D6789078517892794B93DAF8083004937E
:10499000039B4A921B884C974D964E904F910693DD
:1049A000EFF3108172B6264A9068002840F0C28268
:1049B00024489460D0F88040234E34401460C0F8FE
:1049C0008060D0F8844054604FF0FF320595C0F805
:1049D000842001B962B6DAE90115DAF800300293F1
:1049E0006A180132D21A0B2A00F2CE82DFF860B0C8
:1049F0000DF1D809ABF104071AAC01265BE8003FC2
:104A000043EA06024BE8002090F0000FF6D157E889
:104A1000003F43EA060247E8002090F0000FF6D17D
:104A200001EA0500033021600AEB800017E000BFB7
:104A3000C44500208C060500C007050014080500C9
:104A40002440002000E100E0FC06FFBDB041002052
:104A5000C84500202068284003300AEB800021462A
:104A600016F072F90028F5D1236803EA05015A1CF3
:104A700002EA05000AEB81019A1C15400AEB80024C
:104A8000C868D268C9F804200AEB850500F0030263
:104A9000E968C9F808100333012AC9F80000236047
:104AA00000F0AA80022A40F0A180B9F80220920901
:104AB000033203EB92032360002357E8002F02EA3E
:104AC000030147E8001090F0000FF6D1002A00F033
:104AD0008A802168CAF80410DAF80850DAF8000071
:104AE0006B1C1B1A0B440B2B88D900EA05020332FE
:104AF0000626052566F389154AF8225000F10901BA
:104B00000598CAF8001022F0F5FD029B049D0DF5F2
:104B1000947B5846DA1C03F1090602EA05030AEB06
:104B20008303013250F8041BD960B242F5D18B4A9D
:104B30008B49069E521AB6EBD20F04D3894940F234
:104B4000851021F00DF8029F049B7A1C1A400AEB95
:104B50008202BD1CD660DAF80C241E461D40904728
:104B60000AEB850506EA07020332E8601AF822100C
:104B70007D4D042060F3C5010AF822103AF8221096
:104B8000062060F389112AF822105AF8220065F3F2
:104B90009F200146012565F301016FF382014AF868
:104BA00022000AF822109AF81C241AB906E016F01E
:104BB000FDF818B1DAE900329A42F8D103994B684E
:104BC000032B7FF6E6AB98F8032008886749013A83
:104BD000000402F0030240F004000132042316F046
:104BE00087FCFFF7D6BBDAF8041075E75D494FF490
:104BF000B77020F0B5FF5FE7B9F80020C2F3831269
:104C00001344236058E75A4C5A492088000440F066
:104C1000030016F0D9FF6368B4E400230293FFF7A2
:104C20002BBB0DF5947B0DF14C0A0DF1D8091AAC94
:104C3000514B1B680425998BDA8BADF86210032366
:104C4000ADF8642088F805508DF86030B5E4012394
:104C5000079377E5DDE90B9BDDF82880069C109B28
:104C6000002BE5D03D4B3E4ACDF828809B1ADB084F
:104C7000099300235F46CDE90B9B98460694DDF827
:104C800034B007E0109B08F10108984507F11007C0
:104C900080F04A81039B5B68032BF3D9DFF8EC902B
:104CA0007A78D9F808300593069BBD785A60FC786D
:104CB000387979793A781A609D60DC6018615961B9
:104CC000039B1B880893EFF3108472B62B4A9168FC
:104CD000002940F026812A482A4B01259560D0F80A
:104CE000805025F0844525F4794525F003051560AD
:104CF000C0F88030D0F8845055604FF0FF320791F3
:104D0000C0F8842004B962B6D9E90115D9F8003099
:104D100004936A180132D21A0B2A00F2318112ACC4
:104D200001260297184F57E8003F43EA060247E87A
:104D3000002090F0000FF6D1043F57E8003F43EA0F
:104D4000060247E8002090F0000FF6D101EA0500C6
:104D50000330216009EB8000029F1EE0A0A3050044
:104D6000F0A105008C060500440805007408050044
:104D70005C29002074070500907100202440002069
:104D800000E100E0FC06FFBDC8450020B041002066
:104D900020682840033009EB8000214615F0D4FF3D
:104DA0000028F5D12368029703EA05015A1C02EA9C
:104DB000050009EB81019A1C154009EB8002C868C7
:104DC000D268CAF8042009EB850500F00302E968FF
:104DD000CAF808100333012ACAF80000236000F063
:104DE0009980022A40F09080BAF80220920903329A
:104DF00003EB9203236000236D4D55E8002F02EA78
:104E0000030145E8001090F0000FF6D1002A78D099
:104E10002168C9F80410D9F80850D9F800006B1CB3
:104E20001B1A0B440B2B7FF67DAF029F012100EA7A
:104E3000050261F3010B033206254BF0040B65F309
:104E4000891B00F1090149F822B00798C9F8001040
:104E500022F050FC049B0698059CD91C03F109051F
:104E600001EA040309EB8303013150F8042BDA60F3
:104E70008D42F5D1DDE908639E4204D34D4940F2ED
:104E8000851020F06DFE049C059B621C1A4009EB06
:104E90008202A51CD660D9F80C241E461D409047FE
:104EA00009EB850506EA04020332E86019F82210CE
:104EB000414C042060F3C50109F8221039F8221092
:104EC000062060F3891129F8221059F8220064F3B2
:104ED0009F200146012464F301016FF3820149F828
:104EE000220009F8221099F81C242AB9CAE615F004
:104EF0005DFF00283FF4C6AED9E900329A42F6D1F0
:104F0000C0E6D9F8041086E72A494FF4B77020F0BC
:104F100027FE70E7BAF80020C2F38312134423601F
:104F200069E701230793EDE6DDF82880069CDDE9BB
:104F30000B9B7DE605944CE5039B204918880004F3
:104F400040F0040016F040FEFFF722BB039B1C4913
:104F50001888000440F0040016F036FEFFF780BB0E
:104F600098F8033003F0030393427FF48DA9FFF711
:104F70005FBB07238DF828314FF6FF73FFF762BB45
:104F8000049853E704986FE402981AACADE51F2328
:104F90000DF14C0AADF84C300DF1D809FFF724BBE8
:104FA0000DF14C0A1AAC5AE60DF14C0A1AAC3FE668
:104FB000C44500208C060500E80705009C07050095
:104FC000B007050008B5184B9B780BB1002008BD51
:104FD0000EF040FD98B9154B1B780BBB144B5A686B
:104FE000032A06D918881349000440F0040016F07B
:104FF000EBFD114B012283F85E20002008BD0C4B15
:105000005A68032A06D918880C49000440F00400A5
:1050100016F0DAFD084B012283F85D20002008BD60
:10502000BDE80840FFF7FAB898710020947100209D
:105030005C290020A4080500FC2A00208C0805003B
:1050400008B5FFF7BFFF022807D000B908BD064A20
:10505000B421BDE8084023F0A3B9044B00221A7024
:105060009A705A7008BD00BF48070500987100206B
:105070000238012805D810B5134C94F85D300BB9EF
:1050800010BD70470EF0E6FC0028F9D10F4B5A68AE
:10509000032A10D80023194618460D4A84F85D30BB
:1050A00017F00EFF0028EBD00A4A40F21311BDE8BA
:1050B000104023F075B918880749000440F0040037
:1050C00016F082FDE6E700BFFC2A00205C290020E4
:1050D0004150020048070500C408050010B5174BF1
:1050E0001B78B3B1164B1860164C174A94F85E3013
:1050F0000121117063B1154B5A68032A15D800239A
:1051000019461846124A84F85E3017F0D9FE30B9B5
:1051100010BD104ABC21082023F042F9E4E70D4AF3
:10512000C321BDE8104023F03BB918880A490004A8
:1051300040F0040016F048FDE1E700BF25660020BE
:10514000AC640020FC2A0020947100205C2900201F
:105150004150020048070500E008050070B5012332
:105160001F4C54E8005F45EA030244E8002191F037
:10517000000FF6D1A5B91B481B4B05701B4A1C49F3
:105180001D70202017F002FF70B154E8002F02EAD2
:10519000050144E8001696F0000FF6D1112812D14F
:1051A000144B1B78ABB970BD134A12782AB1134A5D
:1051B0001060104B00221A7070BD114AD0210820D7
:1051C00023F0EEF8F5E70E4ADA21BDE8704023F04F
:1051D000E7B80B49D620BDE8704020F0C1BC00BF45
:1051E000E8690020EC690020C86A0020DD50020058
:1051F000D9F803009471002025660020AC640020DB
:105200004807050070B5A94B1C7806467CB14FF6DF
:10521000FF701CF09DFB4FF6FF75A8424FF0000495
:1052200005D01CF095FBA84204F10104F9D1A04D72
:105230006A782B783AB1042B00F2BF80DFE803F0E4
:1052400017BD34410B00042B00F2DB80DFE803F0D4
:105250004D6D81969E001EB133881B2B00F0F780A8
:10526000FFF77CFF2878003018BF012070BD1EB109
:105270003388112B00F0D6808E4A8F4B1268586805
:1052800092F82310002900F0AF80002C00F0AC80D1
:1052900092F82020002A00F0258102283DD8022221
:1052A00000232A70EB70DBE7EB781EB132881B2AF3
:1052B00000F0BB809B07D3D02878003018BF0120B6
:1052C00070BD002ECCD033881B2BC9D17A4B5A68C5
:1052D000022A06D918887949000440F0030016F024
:1052E00073FC00232B706B704EE01EB13388112BC2
:1052F00000F09880704B5A68002C00F089806D494E
:10530000096891F8220091F82010002800F0BE8072
:10531000002900F0B480022AC1D918886849000425
:1053200040F0030016F050FCB9E7EB78002EC1D036
:1053300032881B2ABED1032BBCD95F4B5A68022A84
:1053400020D918885F49000440F0030016F03CFCA7
:1053500018E0EB78002EADD032881B2AAAD1B3EB2F
:10536000840FA7D3544B5A68022A0BD91888564980
:10537000000440F0030016F027FC03E04E4B5A688F
:10538000022A74D800232B70002070BD002E3FF439
:1053900067AF33881B2B7FF463AFEB78A342FFF436
:1053A0005FAF454B5A68022AECD918884749000478
:1053B00040F0030016F008FCE4E7454A40F2CB1148
:1053C000002022F0EDFF2B78042B14D801A252F814
:1053D00023F000BF89530200F9540200F95402007F
:1053E0006152020061520200022813D803220023F6
:1053F0002A70EB7034E7364940F2672020F0B0FBAA
:105400005AE7334A4FF41071002022F0C9FFDAE75F
:10541000022AEBD918882F49000440F0030016F047
:10542000D3FBE3E70023EB70AEE7B3EB840FFFF4AD
:1054300041AF214B5A68022A06D918882649000430
:1054400040F0030016F0C0FB03232B7008E7EB7855
:10545000A342FFF405AF184B5A68022AF4D9188802
:105460001E49000440F0030016F0AEFBECE718887C
:105470001249000440F0030016F0A6FB82E7022A5E
:1054800032D8042200232A70EB70E9E60029F6D016
:10549000022A06D918881249000440F0030016F0C9
:1054A00093FB012200232A70EB70D9E625660020C9
:1054B00098710020907100205C290020480A0500A6
:1054C00000090500BC0A0500300B0500F40A0500C0
:1054D0004807050078090500000A0500B409050021
:1054E000840A05000228CCD918880449000440F039
:1054F000030016F069FBC4E7EB78DBE63C09050026
:1055000010B50388112B24D01B2B0CD0102B00D0EE
:1055100010BD1C4B5A68032A2CD81B4B00221A7052
:105520009A705A7010BD047A002CF1D1164B9C7001
:10553000FFF768FE0028EBD0144A2146204617F0FA
:10554000BFFC0028E4D0124AFB21BDE8104022F045
:1055500027BFFFF757FE0028DAD0002108460B4A84
:1055600017F0AEFC0028D3D0094AEF21BDE8104067
:1055700022F016BF18880749000440F0040016F016
:1055800023FBCAE75C2900209871002041500200EB
:10559000480705006C0B05000378022B13D3032B7F
:1055A00012D90A2B0FD170B51A4D6B68032B044624
:1055B0001FD8194E33884FF6FF72934202D0A2884B
:1055C0009A4202D070BD7047C8E56B68032B19D8AA
:1055D00000214FF6FF730846104A338017F070FC25
:1055E0000028EFD00E4A4FF49571BDE8704022F0CC
:1055F000D7BE2888A2880B49000440F0040016F0AA
:1056000099F8D6E728880849000440F0040016F00D
:1056100091F8DDE75C29002078210020415002004C
:1056200048070500A00B0500C40B05002DE9F04F4D
:10563000B349B44CB44B0F7909682578B34A93F851
:105640000480D3F8009089B004460591082120F029
:1056500013FC204643F6FD63AD4A082120F00CFC04
:10566000292666214FF4A0725423CDE90032CDE9FA
:10567000021620461323A74A082120F0FDFB002D27
:1056800000F02681A44DA54BA54A0821204620F014
:10569000F3FB6E69A349A448DFF8D4C2D5F818A07B
:1056A000A24A06EB86039B01A1FB03E1C90AA0FB0A
:1056B00001E04009C0EB0010A1EB8000ACFB03C38C
:1056C00000905B0C0821204620F0D6FB002E40F015
:1056D00008813346CDE900A6954A0821204620F0EE
:1056E000CBFB95F829B095F828A0EFF3108272B69D
:1056F000904EB068002840F0FA808F4BDFF874C2FB
:105700000121B160D3F8801001EA0C013160C3F8C7
:1057100080C0D3F8841071604FF0FF31C3F884105B
:1057200002B962B62A6A6B6A0692079321F0E2FF19
:10573000069A4AB18148824B0799A2FB0323A1FB39
:1057400000012AF091F8C2B295F82A100291CDE931
:1057500000A25B467B4A0821204620F08DFB95F88D
:1057600039B095F838A0EFF3108272B6B06800280F
:1057700040F0C180704BDFF8FCC10121B160D3F86B
:10578000801001EA0C013160C3F880C0D3F88410A6
:1057900071604FF0FF31C3F8841002B962B6EA6A53
:1057A0002B6B0692079321F0A5FF069A3AB1079B4F
:1057B0006420A3FB000100232AF056F8C2B295F83A
:1057C0003A100291CDE900A25B465F4A08212046CB
:1057D00020F052FB95F849A095F848B0EFF31082FD
:1057E00072B6B068002840F08480534BDFF884C163
:1057F0000121B160D3F8801001EA0C013160C3F8D7
:1058000080C0D3F8841071604FF0FF31C3F884106A
:1058100002B962B6D5E90F63069321F06BFF002E43
:105820006BD0069B64203246A3FB000100232AF0C4
:105830001BF8C2B295F84A30CDF800B0CDE901238B
:1058400020465346414A424D082120F015FB059B56
:105850004049414AC91AC9B2642606FB01F34FF018
:10586000040A009120469B08CDF804A0082120F0EE
:1058700003FB07EB87032046CDE9007A03EB8303A4
:10588000364A082120F0F8FA3549364AA1EB0909D1
:105890005FFA89F106FB01F3A5FB030306270091DC
:1058A00020469B080197082120F0E6FA08EB8803C0
:1058B00003EB83039B00A5FB0323CDE900879B0833
:1058C0002046294A082120F0D7FA09B0BDE8F08F18
:1058D000264B134A2046082109B0BDE8F04F20F0BE
:1058E000CBBA642303FB0AF3B3FBF6F3F2E6012021
:1058F00016E701208CE701204FE732469AE700BF08
:1059000080810020166A002074770020E40B0500D7
:10591000F80B0500180C0500FC2A0020087E050085
:10592000FC0D05007D948320898888880C0E050075
:10593000640C05002440002000E100E0E8F70100CD
:1059400000E20400940C0500CC0C0500000D0500DD
:10595000ABAAAAAA80810020340D0500680D0500BD
:1059600072770020980D0500CC0D0500A87D05007C
:10597000417CAE22FC06FFBD70B5846894F84941B5
:10598000A3070ED4012906D953680C4A0221BDE8A9
:10599000704020F071BA0A4A0221BDE8704020F040
:1059A0006BBA154604460EF001FD2B68054A2046E9
:1059B0000821BDE8704020F05FBA00BF440E05002A
:1059C000600E0500280E050070B5846894F8494102
:1059D000A3070ED4012906D953680C4A0221BDE859
:1059E000704020F049BA0A4A0221BDE8704020F018
:1059F00043BA154604460EF0D9FC2B68054A2046EA
:105A00000821BDE8704020F037BA00BF440E050001
:105A1000A00E0500800E050030B5836893F849316B
:105A20009B0783B004462BD41B4A082120F024FA9C
:105A300014231A4A0821204620F01EFA184B1A682F
:105A400012F57A7F22D0174817490578174B184866
:105A500081FB02C1D217C2EBA1120092002D08BF38
:105A60000346144A0821204620F006FA124B134A36
:105A70001B782046082103B0BDE8304020F0FCB977
:105A800015460EF093FC2B680D4AF2E70D4A0821EB
:105A9000204620F0F1F9E9E7D40E0500E80E0500F4
:105AA000082200200C220020D34D6210B80E050001
:105AB000C00E0500100F0500176A00202C0F05000E
:105AC000C40E0500000F050070B5846894F84941C4
:105AD000A3070ED4012906D953680C4A0221BDE858
:105AE000704020F0C9B90A4A0221BDE8704020F098
:105AF000C3B9154604460EF059FC2B68054A2046EA
:105B00000821BDE8704020F0B7B900BF640F050060
:105B1000800F0500400F0500D6E700BF70B5284B89
:105B20009B7884B003BB274D28884FF6FF76B042A0
:105B300022D013211CF0E4FE044690B9224B2E80A3
:105B40005A68032A06D918882049000440F0040046
:105B500016F03AF81E4A1F491368012003431360E8
:105B60000870204604B070BDFEF730F804460028E7
:105B7000D9D0204604B070BD0DF06CFFA8B1124B17
:105B80005A68032A06D918881349000440F0040013
:105B900016F01AF80E4A1149136801200024034335
:105BA00008702046136004B070BD04A80F2300F8ED
:105BB0000C3D0B4A0C2117F083F90446D1E700BFD6
:105BC00098710020DE6D0020442900209C0F050004
:105BD000E46D0020E06D0020B80F0500E16D0020AD
:105BE000955C02000238012804D810B5144C2378C3
:105BF0000BB910BD70470DF02DFF0028F9D1114BE6
:105C00005A68032A06D8104A1368D9070AD4002311
:105C1000237010BD18880D49000440F0040015F0F1
:105C2000D3FFF0E723F001031360FFF777FF0028AD
:105C3000EDD0074A40F2DF2122F0B2FBE7E700BFD8
:105C4000E16D002044290020E46D0020D00F050004
:105C50008802050010B50C4B1B782BB10B4B1C7840
:105C60002CB10024204610BD0124204610BD012285
:105C70001A70FFF753FF0028F3D0054A40F29161F4
:105C800022F08EFBEEE700BFD06D0020D36D002028
:105C9000B002050070B505460C4616F0DFFA48B9AB
:105CA0000C2C0ED1074B1B68214628465B6BBDE8C8
:105CB00070401847044A4FF47F7122F071FB0C2C9E
:105CC000F0D070BD446A0020880205002DE9F04341
:105CD0001F4B90F80C801C88240483B006460F46A6
:105CE00044F00304EFF3108172B61A4B986868BB56
:105CF000194ADFF86CC001259D60D2F8805005EA92
:105D00000C051D60C2F880C0D2F884505D604FF071
:105D1000FF33C2F8843001B962B6D6E9005921F0E8
:105D2000E9FC3DB164202A46A9FB0001002329F0CB
:105D30009BFDC5B2B37B0949CDE900533A464346C2
:105D4000204615F09FFA03B0BDE8F0830120E2E79A
:105D5000202900202440002000E100E0E00F0500A1
:105D6000FC06FFBD2DE9F0432C4C2D4D2D4983B091
:105D700004F11400FEF70AF96B68022B02D803B095
:105D8000BDE8F0832E8894F82880360446F0030698
:105D9000EFF3108172B6244B986800283CD1234A57
:105DA000DFF8A8C001279F60D2F8807007EA0C07CF
:105DB0001F60C2F880C0D2F884705F604FF0FF337C
:105DC000C2F8843001B962B6D4E9087921F092FCB6
:105DD00047B11748174AA9FB0001A7FB022329F086
:105DE00043FDC7B294F82A30134A1449CDE9007331
:105DF0003046434615F046FA6B68022BBFD90E4970
:105E00000F48FFF763FF6B68022BB8D90D490E48A6
:105E100003B0BDE8F04359E70120D3E7FC2A002096
:105E2000202900200C1005002440002000E100E0A3
:105E3000E8F7010000E20400A0630500141005006B
:105E4000282B002040100500382B0020FC06FFBD49
:105E5000264B274870B50122264E1A7321F0C0FD4B
:105E60000020FEF703F896F82C30002B31D0224AA0
:105E7000224B234823496FF00044C2F80843802492
:105E80000122C0F880401A600B6843B942F21073D7
:105E900000E023B30A68013B002AFAD0FBB1164B9D
:105EA0000024C3F800453474124E354602E0013434
:105EB000082C09D02B7F0235002BF8D0E0B201343A
:105EC000FDF7D4FF082CF5D1002386F82C300120F3
:105ED00070BD0D4940F217101FF042FEC7E70A4996
:105EE0004FF492701FF03CFED9E700BFFC2A00205F
:105EF00088810020B47100200070004008700040CC
:105F000000E100E0147100403803050010B5144CA6
:105F100020884FF6FF7398420FD0124B1B7863B95D
:105F2000114B5A68032A11D8104B1B7833B1002348
:105F30001A46194617F078F908B910BD08200C4A1E
:105F400040F28F11BDE8104022F02ABA18880949A2
:105F5000000440F0040015F037FE2088E4E700BF9D
:105F6000DE6D0020DC6D0020442900202566002025
:105F7000880205004C100500B9B1B0B10388112B9F
:105F80002CD02FD910B5502B86B00FD0572B0AD15B
:105F900000230124029303918A698DF80840CDE91A
:105FA000043302A8904706B010BD7047C3880A8921
:105FB00003919A421CD08A899A42F4D18A69002AB4
:105FC000F1D006AB002103F8101D00F11204018A84
:105FD00004941846ADF814109047E4E74FF6FF73A9
:105FE0008B827047102B02D183888B827047704759
:105FF000048A022CDFD1123001911CF083F8019940
:1060000038B101238DF808408B758B6902A8984739
:10601000C9E7032388758DF80830F6E730B50446E4
:1060200087B002F10C000D461CF06CF850B1022351
:106030008DF80430286802902368204601A998470B
:1060400007B030BD03238DF80430F3E72DE9F04F9E
:10605000DFF848A2DAF800301A6889B0002A00F0A8
:106060008D800024064625464FF6FF7700F106098D
:1060700042F633280FE0502B39D0512B03D1B3799E
:10608000012B00F0A380DAF800301A680135AA422B
:1060900004F10C0472D95A69338852F804B0112BF8
:1060A00069D0E8D8102BEED1BBF80A30B288ABF833
:1060B0007621002BE7D001230822002103A88DF8C8
:1060C0000830019327F0D4FF019B039302AB0493A4
:1060D00003AABBF80A10BBF87601FDF7EFF9002818
:1060E000D1D0DBF80430002BCDD09847CBE7F18836
:1060F000BBF86E318B425AD0BBF80A308B4240D08D
:10610000BBF852318B4200F08980BBF84E318B4294
:1061100000F08C80BBF862318B426ED0BBF85E31F0
:106120008B4200F0A0809BF812C0BCF1000F11D090
:10613000BBF818308B4200F0A0805A46002303E0E1
:10614000108B884200F09A800133DBB2634502F184
:106150000A02F5D102AA5846FDF754F9002892D058
:10616000DBF80030002B8ED0029904228DF80C2031
:10617000F289049167E0ABF8767184E709B0BDE875
:10618000F08F338A012B7FF47EAFDBF80030002BD9
:106190003FF479AFB27C002A61D0012A7FF473AF5B
:1061A00006228DF80C20584603A998476BE7338ADE
:1061B000012B7FF468AFDBF80030002B3FF463AFB6
:1061C000B27C002AEDD0012AEBD05CE702AA31892B
:1061D0005846FDF717F900283FF455AFDBF80030BB
:1061E000002B3FF450AF0721029A8DF80C10079650
:1061F0005846049203A9984745E7338ACDF80880AA
:10620000022B7FF440AFDBF80030002B3FF43BAFB4
:1062100058464A4602A9FFF701FF34E7338A42F69F
:106220002222022B02927FF42EAFECE742F62222CA
:106230000292DBF80030002B3FF425AF04210492DA
:10624000F2898DF80C10318AADF8142006F1120293
:10625000ADF816105846069203A9984713E7052291
:106260008DF80C209FE7CDF80880DBF80030002B7C
:106270003FF409AF0422414678E70023328A8DF8C3
:106280000B3042F64D23ADF80830022A4FF00103DF
:106290008DF80A307FF4F7AEB5E700BFFC4500206B
:1062A00039B130B10388112B04D0502B09D0102BF9
:1062B00004D070474FF6FF734B82704783884B8240
:1062C00070470B7D002BF4D0C2884B899A42F0D1E5
:1062D000038A022BEDD130B50D6883B055B1123071
:1062E0000C461BF00FFF38B100238DF80430204618
:1062F00001A9A84703B030BD01238DF80430F6E7AB
:1063000038B5244C6368022B01D8012038BD2088A1
:10631000214B22491A79000440F0030015F00AFAD3
:106320006368022BF1D920881D4B1E491A7900049D
:1063300040F0030015F0FEF96368022BE5D91A4B13
:10634000258858680CF064FF2D0445F003050246CB
:106350001649284615F0EEF96368022BD5D9144B7F
:10636000258858680CF054FF2D0445F003050246BB
:106370001049284615F0DEF96368022BC5D920883C
:106380000D4B0E491A78000440F0030015F0D2F9C5
:10639000012038BD382900208847002064100500FE
:1063A0005047002090100500D46D0020C810050053
:1063B000D0450020FC100500D26D00202C110500F6
:1063C000F8B503220021064627F052FE07201CF0F4
:1063D00051FDB0B14388072B044612D10D4F751EF5
:1063E0000236B4F9043073B1236805F8013F204642
:1063F0001CF028FDB542044603D014B16388072B76
:10640000EFD00320F8BD394640F22F401FF0A8FB23
:10641000EAE700BFB002050070B501220021064680
:1064200027F026FE09201CF025FD20B103681A0C78
:10643000092A054601D0012070BDB0F904209BB2A5
:106440005C1EAAB1072C0DD8E2080123B15C04F050
:10645000070403FA04F40C432846B4541CF0F2FC7D
:10646000012070BD054940F26F401FF079FBEBE75A
:10647000024940F26E401FF073FBE3E7B0020500F3
:106480002DE9F04103220021064627F0F1FD0C2002
:106490001CF0F0FC30B303681A0C0C2A044621D11E
:1064A000194FDFF868800025BB420FD0B4F90430E3
:1064B0001BB305EB45035B08E80703F101022178F4
:1064C00013D4F1542368C3F30323B35420461CF0C0
:1064D000B9FC0135032D044604D01CB123681A0C05
:1064E0000C2AE1D00320BDE8F081F05C40EA011104
:1064F000F15423681B09B354E8E7414640F24A408F
:106500001FF02EFBD5E700BF38020C00B0020500DB
:106510000146014822F096BEA031050010B50446A0
:1065200040B190F866302BB1013BDBB284F86630A5
:1065300063B110BD084952201FF012FB94F8663079
:10654000013BDBB284F86630002BF2D121460348D0
:10655000BDE8104022F076BE58110500D07205004B
:10656000DCE700BF2DE9F04FAE4B91B005461C684B
:1065700040B33CB32A882123110ACB40D80726D444
:10658000043C01E0984758B954F8043F2846002BD2
:10659000F8D12946A44822F055FE11B0BDE8F08F8D
:1065A0002A882123120AD340DB07F2D59F4B5A6871
:1065B000022AEED918889E49000440F0030015F025
:1065C00003FBE6E79B49A5201FF0CAFAD2E7974BE9
:1065D0005868062900F2BC81DFE811F0120142017F
:1065E0006B017D019401A50107000228C8D91B8811
:1065F00005932846FDF734FADFF85CA22F796E790F
:10660000E9882A89DAF808300B900393CDE90C76F3
:10661000CDE90E12EFF3108672B6874A9068002813
:1066200040F0B1818549864B01279760D1F8807091
:106630001F401760C1F88030D1F8847057604FF068
:10664000FF320490C1F8842006B962B6DAE9011677
:10665000DAF800B072180132A2EB0B020A2A00F23B
:106660009581DFF8F8910127A9F1040859E8003F66
:1066700043EA070249E8002090F0000FF6D158E8FD
:10668000003F43EA070248E8002090F0000FF6D1EF
:1066900001EA0600033007910AEB800004E006EAF5
:1066A000030003300AEB800007A914F04DFB079BA1
:1066B0000028F4D103EA0600591C0AEB800031409F
:1066C0009A1C0AEB8101C068C968099132400AEB43
:1066D000820200F00301D2680A9203330129CDE956
:1066E000073000F04981022940F04081BDF82220A6
:1066F0009209033203EB92030793002358E8002F1B
:1067000002EA030148E8001090F0000FF6D1002AD9
:1067100000F029810799CAF80410DAF80860DAF85D
:106720000000731C1B1A0B440A2B9FD900EA0602B7
:106730000332052600F1080166F3891604984AF829
:106740002260CAF8001020F0D5FF039E0BF103026F
:106750000BA80BF1080706EA02030AEB83030132D8
:1067600050F8041BD960BA42F5D1364A3649059F24
:10677000521AB7EBD20F04D3344940F285101FF000
:10678000EFF9039B0BF101021A400AEB82020BF1B5
:106790000206D760DAF80C241F461E4090470AEB29
:1067A000860607EA0B020332F0601AF82210284E20
:1067B000032060F3C5010AF822103AF822100520E0
:1067C00060F389112AF822105AF8220066F39F20FC
:1067D0000146012666F301016FF382014AF82200A7
:1067E0000AF822109AF81C242AB9C9E614F0DEFA35
:1067F00000283FF4C5AEDAE900329A42F6D1BFE68E
:1068000002287FF6BDAE1E882846FDF729F936041A
:1068100046F0030602462B790E49304614F068FE16
:10682000AEE600BFC06D0020D0710500C02800207A
:106830003C120500E00405002440002000E100E0D7
:10684000FC06FFBDA0A30500F0A105008C06050015
:106850000012050080110500B0410020C84500204D
:106860004B4A0228D2F804657FF68AAED5F8088034
:106870001F882846FDF7F4F8A6EB080323F07F43B2
:106880004FF47A724FF480484FF00009E2FB03891D
:106890004FEAD83242EA4942AB8801923F04AA68E3
:1068A000009247F0030702463A49384614F0EAFCE2
:1068B00066E602287FF664AE1E882846FDF7D0F80B
:1068C000360446F003060246B5F904303249304634
:1068D00014F00EFE54E602287FF652AE1E882846BB
:1068E000FDF7BEF86B68B5F908200192360499B23D
:1068F00046F00306024600911B0C3046274914F06F
:10690000C1FC3DE602287FF63BAE1E882846FDF717
:10691000A7F8360446F0030602466B682049304665
:1069200014F0E6FD2CE602287FF62AAE1E882846E3
:10693000FDF796F82A892B7901923604EA880092AD
:1069400046F0030602461749304614F09BFC17E652
:1069500002287FF615AE18881349000440F00300A2
:1069600014F0E8FE0CE6DAF80410D6E60F494FF40E
:10697000B7701FF0F5F8C0E6BDF82020C2F383120F
:1069800013440793B9E6012304935DE65846CDE628
:10699000001001408C110500AC110500B811050074
:1069A000D4110500E4110500201205008C06050035
:1069B00010B503787BB1022B0CD100221649174881
:1069C00016F066FA18BB00224FF4F011144821F0BB
:1069D00069F8B0B910BD0389012B04460CD1626877
:1069E00010490E4816F054FA0028F3D00E4A9C21A4
:1069F000BDE8104021F0D4BC0B4999201FF0B0F83D
:106A0000EDE7094A9521BDE8104021F0C9BC064ACE
:106A1000902121F0C5FCD6E71139020080640020E6
:106A200088810020419502007803050008B50246E0
:106A30000649074816F02CFA00B908BD054A40F28D
:106A40000F11BDE8084021F0ABBC00BF596A02003D
:106A5000F06900205C1205002DE9F043064683B082
:106A6000002800F0F380804B1B78002B00F0CB80D7
:106A7000DFF83C927D4CD9F80435636304F11408C7
:106A8000012758E8003F03EB070248E8002191F096
:106A9000000FF6D1764822F019FD0546002800F0D7
:106AA000B980744B80F86670D3F89000DFF804C2A8
:106AB000D9F8042562648CFB0012C117C1EBE21106
:106AC000B1F5A07FD3F89C7005F1020200F3C880F5
:106AD00041F288339F4200F0BE80A7F59C53A3F19A
:106AE000090EBEF1080F00F2BB8041F28D38474518
:106AF00040F3A9800B3B00FB03F38CFB0371DB1716
:106B0000C3EB2111B1F5A07F00F3AA804FF4C87345
:106B100003FB01F3984223D0C82303FB01F39842FF
:106B20001ED0642303FB01F3984219D0322303FBE8
:106B300001F3984214D001EB810707EB8707B842B5
:106B40000ED000EB400C63450AD08700BB4207D053
:106B50003844834204D0B3EB4C0F18BF4FF0FF31E1
:106B6000102300933046642309F07CFEB0F5706F6B
:106B7000074604D9404AA121002021F011FC3A1215
:106B8000BB1C6F702A70A5F868303C483C4FFCF77E
:106B9000F3FBB5F868003B4BD4E9082103FB00F395
:106BA0000144013294F82A00A7FB0373C3F387431F
:106BB000C4E9082194F8282084F82930984238BF85
:106BC00084F82A3031469A422F4888BF84F828300A
:106BD00022F038FB2A462D492D4816F059F960B3AA
:106BE0002846FFF79BFC2B48FCF7B6FB2A4B5A685C
:106BF000012A22D91888294A2949000440F00200B4
:106C000014F098FD19E02048314603B0BDE8F04388
:106C100022F018BB31461C4822F014FB4046FCF71A
:106C20009BFB1D4B5A68012A07D918881B4A1D492E
:106C3000000440F0020014F07DFD1B4803B0BDE8E5
:106C4000F043FCF799BB01FA0EF15BE71749B3205B
:106C50001EF086FF07E74FF4FA334FF4A07159E7AF
:106C60004FF0FF317CE700BF166A0020FC2A0020AD
:106C7000D0720500CC47002080120500382B002080
:106C80005917B7D1E8F70100EC7205006D8D0200CD
:106C900080640020102B002008290020A8FB04009D
:106CA000B0120500EC120500282B00205C12050034
:106CB000001001401F85EB512DE9F04FBC4C63687B
:106CC000022B89B003D8012009B0BDE8F08F2088DD
:106CD000B84BB9491A78000440F0030014F02AFDBB
:106CE0006368022BEFD9B54B25881E682D0445F04B
:106CF0000305002E00F054813368B1491A79284603
:106D000014F018FD6368022BDDD9AE4B2588186896
:106D10000CF07EFA2D0445F003050246AA492846E8
:106D200014F008FD6368022BCDD9A84B258818689C
:106D30000CF06EFA2D0445F003050246A4492846DE
:106D400014F0F8FC6368022BBDD92288A14CDFF84F
:106D5000B0B21304009325F021F99F49642221F079
:106D6000FF0102FB00F0A4EB010AB0FBFAF3019370
:106D700025F014F9DBF808800290EFF3108472B666
:106D8000964A9068002840F0F2809549954E01257A
:106D90009560D1F8805035401560C1F88060D1F819
:106DA000845055604FF0FF320390C1F8842004B93D
:106DB00062B6DBE90114DBF8009062180132A2EB45
:106DC0000902082A00F2F280874F01253E1F57E88A
:106DD000003F43EA050247E8002090F0000FF6D19B
:106DE00056E8003F43EA050246E8002090F0000F15
:106DF000F6D101EA0400033004910BEB800004E0BB
:106E00000498204003300BEB800004A913F09CFF92
:106E10000028F5D1049B03EA04015A1C02EA04008D
:106E20000BEB81019A1C14400BEB8002C968D268FD
:106E300006920BEB840401F00302E0680790033331
:106E4000012ACDE9043100F09E80022A40F09580AD
:106E5000BDF816209209033203EB9203049300233A
:106E600056E8002F02EA030146E8001090F0000FF8
:106E7000F6D1002A7ED00499CBF80410DBF8084044
:106E8000DBF80000631C1B1A0B44082B9FD904403D
:106E9000032503340521821D65F3891103984BF8FE
:106EA0002410CBF8002020F025FC09EB0500009B06
:106EB0004E4C4F4E09F1040109F1050200EA0800A9
:106EC00001EA080102EA08020BEB80001D0C0BEB43
:106ED0008101019BC3600BEB8202A41B029BCB6070
:106EE000B5EBD40FC2F80CA054D209F1010202EAAA
:106EF00008020BEB820209F10204D560DBF80C24D6
:106F0000904704EA08040BEB840408EA090808F136
:106F10000308E0601BF828203648032161F3C5020E
:106F20000BF828203BF8282061F389122BF8282041
:106F30005BF8281060F39F210A46012060F30102EC
:106F40006FF382024BF828100BF828209BF81C24C2
:106F50002AB9B8E613F02AFF00283FF4B4AEDBE903
:106F600000329A42F6D1012009B0BDE8F08F01232A
:106F700003931CE7DBF8041080E71F494FF4B77058
:106F80001EF0EEFD6BE7BDF81420C2F3831213442C
:106F9000049364E7184940F285101EF0E1FDA4E770
:106FA000164940F22B101EF0DBFDA5E648466EE7C1
:106FB00024280020F882002018130500E463002034
:106FC0008C13050080640020C0130500F0690020C8
:106FD000F813050000FF0020FFAB00202440002034
:106FE00000E100E0FC06FFBDC8450020A0A30500AD
:106FF000F0A10500301405008C06050050130500B3
:10700000B041002008B50CF007FC00BF80B50E4D64
:10701000DFF840800D4F0E4E95F8603095F85F40D8
:10702000022B41464FF0AA0001D01EF099FD04F555
:10703000C07447F824600BF0B7FE13F0F1FF00288E
:10704000EAD105F0EBF8E7E7FC2A00200000014058
:107050003546526E60140500421E012A10B50AD949
:1070600040B9144B1B6813B9134B1B689847134B5B
:1070700000221A7010BD0F4B1B68002BFAD1104C68
:10708000104B227903EBC2031B7963B10BF060F85C
:1070900030B9236801225A600BF05AF80028FBD05F
:1070A000054B0020E1E7084940F277101EF058FD3B
:1070B000ECE700BFEC710020E4710020E8710020D3
:1070C000F4210020BC4000209C1405002DE9F04173
:1070D000836893F849319B0784B0064649D4454BF1
:1070E000454AD3F80075D3F81855D3F81C45082144
:1070F000EDB21EF0C1FE283D0821404A30461EF088
:10710000BBFE05EB850026F001FEE4B2283C80467C
:1071100004EB840026F0FAFD394B3A4A83FB001E4B
:1071200083FB083CC1174FEAE873C1EBAE01C3EB28
:10713000AC0301EB810103EB830304EBD474A0EBFC
:1071400041006410A8EB430105EBD5750290009156
:1071500001946B10082130461EF08EFE012F14D0D2
:10716000294B2A4A3046082104B0BDE8F0411EF000
:1071700083BE14460DF01AF92368254A30460821CB
:1071800004B0BDE8F0411EF077BE224B1F4A224FEB
:10719000082130461EF070FE204B21491C685D68B6
:1071A0002048214A04EB84039B01A1FB03C1C90AC7
:1071B000A0FB01C04009C0EB0010A1EB8001A7FBC0
:1071C000037300915B0C082130461EF055FE74B12C
:1071D000642303FB05F3B3FBF4F3CDE9005430461D
:1071E000124A08211EF048FE04B0BDE8F081234693
:1071F000F3E700BF00D00140E40B0500D814050000
:1072000067666666EC140500A87D0500FC0D0500A8
:10721000C40E0500087E0500417CAE221C6A0020D9
:107220007D948320898888880C0E05002015050030
:1072300070B582B00E46019028B940F23D101D494C
:107240001EF08EFC01980A2201A927F065FD019B22
:107250001A782E2A4FEA400507D0F2B92835502D6A
:107260001ED80020357002B070BD5A1C01925B78A8
:10727000A3F13502042A16D923B9EFE701945B780C
:10728000002BEBD026F0A0FD019B1A7810445C1C6B
:1072900041784907F2D4002AE0D00B2002B070BD3B
:1072A000072002B070BD002DB4BF4FF0FF330123A3
:1072B0001D44E7E7541505002DE9F041836893F874
:1072C00049319B0784B00446164654D48B1E012BCB
:1072D0000D4606D9394A02211EF0CEFD04B0BDE8A4
:1072E000F0810DF10F015068FFF7A2FF00284ED189
:1072F000032D57D09DF80F408DF80E4020463049A1
:10730000304A4B68C2F81845022BC2F81C05E5D973
:10731000283C04EB8400B1F800802B4E26F0F6FCEC
:107320009DF80E50283D074605EB850026F0EEFC43
:1073300086FB003286FB0736C317C3EBA20303EBC1
:10734000830204EBD473A0EB4204F817C0EBA60051
:107350004FEA084805EBD57500EB800648F00308B6
:107360006D105A101949009540460194A7EB460349
:1073700013F088FFB2E70DF019F833680093204648
:10738000134A08211EF078FD04B0BDE8F0810728FB
:107390000CBF104A104A204602211EF06DFD04B0B9
:1073A000BDE8F081B0680DF10E01FFF741FF002844
:1073B000EDD19DF80F409DF80E00A0E7AC1505003B
:1073C0008428002000D0014067666666F01505003D
:1073D0007C150500C4150500E015050000B583B057
:1073E0000DF1070131200CF065F910B103B05DF823
:1073F00004FB0DF1070139200CF05CF90028F5D1F0
:10740000214B22491A6842F2107300BF00BF00BF2F
:1074100000BF00BF00BF00BF00BF8A422FD000BF27
:1074200000BF00BF00BF00BF00BF00BF00BF00BF64
:1074300000BF00BF00BF00BF00BF00BF00BF00BF54
:1074400000BF00BF00BF00BF00BF00BF00BF00BF44
:1074500000BF00BF00BF00BF00BF00BF00BF00BF34
:1074600000BF00BF00BF00BF00BF00BF00BF00BF24
:1074700000BF00BF00BF00BF00BF00BF00BF013B97
:10748000C3D103B05DF804FBF02100200024F40018
:1074900084DF704783DF704781DF7047A6DF704766
:1074A00030B5104B87B01C888DF805100023ADF85F
:1074B000084020210224CDF80A308DF80620ADF8CE
:1074C0000E3001AA0DEB04038DF80410032502A968
:1074D000ADF802508DF80A40CDE90432FFF7DEFF27
:1074E00007B030BD587100200388112B0DD0512BEF
:1074F00010D12DE9F043827999B00023022ACDE919
:1075000004330CD019B0BDE8F0836D4B81881A8824
:10751000914200D070474FF6FF721A807047694958
:1075200005890C88A542EDD1847B043C022CE9D965
:1075300018AFADF80A309DF8163027F8582D0446DC
:10754000058A408A8DF8102043F001038DF816302B
:10755000ADF81A0004F114038988A08807933A460D
:107560000DF10408ADF81850CDF80C80FBF7D2FEF1
:10757000034660B9039AA0881278920709D440F2B2
:10758000FD1304A9ADF81430FBF7C2FEBAE7A088DA
:10759000F5E704A9ADF81430FBF7BAFE0028B1D125
:1075A000658AA6883DB3012D05D0304602222021F0
:1075B000FFF776FFA6E7217D012923D1414630461A
:1075C00016F058FF00BBBDF804904FF6FF739945C5
:1075D0001DD0DFF8208158E8002F42EA050148E875
:1075E000001090F0000FF6D1A2B1217D06223046A6
:1075F000FFF756FF86E7344940F269101EF0B0FAF3
:10760000658AD0E70222F2E7217D0422EFE7217D9F
:107610000722ECE79E424DD02C4B1B781BB12C4827
:107620001AF024FD60B1002358E8002F02EA03019C
:1076300048E8001090F0000FF6D10422217DD6E733
:1076400004A9484616F0F2FE0028ECD117220DF1ED
:107650001101204826F00EFC1C2211A91E4826F01C
:1076600009FC0820ADF808003A4601231B493046C2
:107670001AF046FD0028D6D15C2115480AF07AFFA1
:10768000174A1849C2F85C01602302F5AE72164829
:107690000AF010FE0028C6D1144B5A68022A06D9F7
:1076A00018881349000440F0030014F08DFA044BCD
:1076B0001E8027E7044940F237101EF051FAABE76D
:1076C000946F0020587100202416050025660020C4
:1076D000FC700020047100201C7100203871002013
:1076E0009C6F00205CF10700AC2A00206829002074
:1076F00050160500986F002070B5017801290446E6
:1077000014D002290CD14068002840F085805C2309
:107710005B4A5C484FF4FE210AF0CCFD20BB70BDF3
:107720005949F920BDE870401EF01ABAD0E901307D
:10773000564A90422CD02BBB554B5A68022A19D876
:10774000544B002253E8001F01EA020043E8000402
:1077500094F0000FF6D1504B1B78002BDFD00420A3
:10776000BDE870400BF0C4BF474AB321BDE870408C
:1077700020F016BE18884949000440F0030014F0B8
:1077800023FADDE71846404AED2120F009FED3E751
:10779000434D28884FF6FF76B04226D0002B0CBF11
:1077A00001220422FFF77CFE6368F0B9C3B1384AB6
:1077B0002E805168012907D910883A493A4A0004B5
:1077C00040F0020013F0B6FF324B002253E8001FD6
:1077D00001EA020043E8000494F0000FF6D170BD06
:1077E000FF21FBF791FD28B36368294A4FF6FF702C
:1077F00051682880002BDDD1012912D800224FF4D6
:10780000FE2120480AF08CFD002888D01E4AE12184
:10781000BDE8704020F0C4BD1B4AAE2120F0C0FD81
:1078200075E710882149204A000440F0020013F057
:1078300081FFE3E7B121FBF769FD0028D4D1144BA8
:107840005A68022A14D8134B002253E8001F01EA99
:10785000020043E8000494F0000FF6D10E4B1B78B1
:1078600093420CBF02200420BDE870400BF040BFE3
:1078700018880F49000440F0030014F0A5F9E2E76E
:107880009C6F0020AC2A0020241605005CF1070044
:1078900068290020986F0020966F002010170500BF
:1078A000946F0020D8160500B8FB0400A016050050
:1078B0007C1605002DE9F041764C24788AB0002C26
:1078C00068D01D460B4674490E780446002E00F021
:1078D000A380724801950AA90068802501F81B5D04
:1078E00000922246846B6E48A0479DF80D40E10748
:1078F00054D40820A20702D40AB0BDE8F081694B35
:107900001B681868002845D05A691468B4F85E31BD
:10791000002B3CD0B4F876214FF6FF739A4239D051
:10792000614B93F8640093F9652093F966108DF824
:10793000100003238DF811208DF812101022002161
:1079400006A8ADF80E3026F093FBB4F85E31ADF822
:1079500018300DF10E0204ABCDE9082301200021FF
:10796000ADF81C108DF81A0006A9B4F87601FFF7DF
:1079700095FD0028C0D1BDF80E30032B18BF0C2098
:10798000BAE752F80C4FB4F85E110029C2D10133A6
:107990009842F6D108200AB0BDE8F081414E336824
:1079A00018680028A5D05A691568B5F84E312BB172
:1079B00008E052F80C5FB5F84E1119B90133834253
:1079C000F7D196E7B5F876214FF6FF739A425BD070
:1079D00008231022002106A8ADF8103026F048FB3D
:1079E000B5F84E212E4BADF8182004AACDE9082396
:1079F00001200021ADF81C108DF81A0006A9B5F879
:107A00007601FFF74BFD20B9BDF81030082B18BFE9
:107A10000C209DF80D406DE72249096802EB4202F7
:107A2000496951F82270BA7CAA422BD9B7F876116D
:107A30004FF6FF729142ADD01FFA83F81022314603
:107A400006A8ADF8108026F013FB05EB850307EBC5
:107A500043020121938AADF8183004AB8DF81A1057
:107A6000ADF81C600994089306A9B7F87601FFF7F2
:107A700015FD00287FF440AFBDF81030434518BF16
:107A80000C2039E7072037E7A30783D53368186848
:107A90003AE700BFDC6D0020DD6D0020446A002065
:107AA000602B0020FC450020FC2A00202DE9F0413D
:107AB000074682B047481BF007FA064646481BF0C7
:107AC00003FA0546002E71D0B6F90420002859D0DB
:107AD000B0F904303ABB002B62D07F2B6FF07E04EC
:107AE000A8BF7F239C42B8BF1C464FF0000C042364
:107AF000624602210DEB03008DF805408DF804C0AD
:107B0000FFF7D8FE0F2808D05BD9132853D043F2D3
:107B10000143984201D0112845D1032300203B7036
:107B200002B0BDE8F0817F2A6FF07E04A8BF7F22FB
:107B30007F2BA8BF7F23A242B8BF22469C42B8BF7A
:107B40001C469046D0B25FFA84FC04238DF80400F2
:107B5000002202210DEB03008DF805C0FFF7AAFEFD
:107B60000F28DAD0D1D890BB3870B288A2EB0808C1
:107B7000A6F8048015B1AB881C1BAC80002002B0B5
:107B8000BDE8F08162B17F2A6FF07E08A8BF7F2236
:107B90009045B8BF90465FFA88F02C46AC46D4E7D3
:107BA00002233B70002002B0BDE8F0810028F7D02E
:107BB000B0F904308FE7012300203B7002B0BDE82C
:107BC000F08120B93870002ED4D08046CDE7082847
:107BD000E9D1A2E73800010038020C002DE9F0419C
:107BE000074682B049481BF06FF9064648481BF02B
:107BF0006BF90546002E7AD0B6F9043000284DD036
:107C0000B0F9044083BB002C5BD040F2FF72944279
:107C1000404BA8BF14469C42B8BF1C46A4B20021EA
:107C2000220152B2C4F3071C884608460A430323C4
:107C30008DF805208DF804001946002201A88DF862
:107C400006C0FFF737FE0F2808D040D9132853D0BD
:107C500043F20143984201D0112835D1032300207B
:107C60003B7002B0BDE8F08140F2FF7229489442B7
:107C7000A8BF14469342A8BF13468442B8BF044627
:107C80008342A4B2B8BF034622011FFA83F852B25E
:107C9000C4F3071CD8B2C8F30321C7E78BB140F285
:107CA000FF7293421B48A8BF13468342B8BF0346E6
:107CB0001FFA83F8D8B2C8F30321AC462A462C46F3
:107CC000B4E702233B70002002B0BDE8F081C8B9E0
:107CD000387026B1B388A3EB0808A6F80480002DFD
:107CE000F2D0AB881C1BAC8002B0BDE8F08100284C
:107CF000E7D0B0F9044086E7012300203B7002B0D2
:107D0000BDE8F0810828DFD1A8E700BF30000100FE
:107D10003100010001F8FFFF70B5044688B000286B
:107D20007AD02188E9B1B1F5407F17D16268130C90
:107D3000013B0B2B67D8DFE803F05A666666666680
:107D400055664D6666063B4B9A4205D03A4905207A
:107D50000AF0BAFD002857D1FBF7E6FF002008B073
:107D600070BD364D23792A7C8DF807309A42F5D0C4
:107D7000082202A826F07CF901240DF1070302AACB
:107D8000E988688ACDE90243FBF798FB0028E5D132
:107D90009DF807306A8A2B744FF6FF739A42DDD044
:107DA0002B7D002BDAD00146102204A826F060F9C2
:107DB000EE88BDF80A20039B8DF8124004A902AC9E
:107DC000688A0694ADF81060ADF814200793FFF7A9
:107DD00065FBC3E792B2082A15D8194902200AF0B8
:107DE00073FDB7E7174901200AF06EFDB2E792B2C2
:107DF000C2B1303A082A06D8012303FA02F240F24F
:107E000003131A42A8D106200F4A40F2156120F050
:107E1000C7FA002008B070BD0B4940F202601DF0A7
:107E20009FFE7EE740F2C65007491DF099FE0620EE
:107E3000EAE700BF38020C00816402007C6F00207A
:107E400019640200C1630200B002050008B5084BC6
:107E50009A78587012B1FBF7B9FE40B90020FDF7CF
:107E6000D1F918B1BDE80840FDF7ACB8032008BD52
:107E70009871002067DF704710B582B0164A9DF8F0
:107E80000230128802A943F0010321F8082D2620B0
:107E90008DF80230FFF7EEFF104B04465A6818B118
:107EA00072B9204602B010BD022AFAD918880C49CE
:107EB000000440F0030013F087FE204602B010BD1E
:107EC00018880849000440F00100224613F032FCF3
:107ED000204602B010BD00BFDE6D00204429002006
:107EE000501705002817050070B5836893F84931CD
:107EF0009B0704461AD4194D95F86C3083B905F1E7
:107F00007003012253E8001F01EB020043E8000662
:107F100096F0000FF6D1A1B1012385F86C3070BD49
:107F20000F4A0221BDE870401DF0A6BF15460CF0B7
:107F30003DFA2B680B4A20460821BDE870401DF031
:107F40009BBFFFF799FF0028E6D00346064A20466C
:107F50000221BDE870401DF08FBF00BFFC2A002049
:107F600098170500C40E05006817050030B5294BA9
:107F700083B0012253E8001FA1EB020043E8000593
:107F800095F0000FF6D1E8B1013017D1224D6B68A2
:107F9000002B36D1214A4FF4C761002020F000FAAF
:107FA0006B6814B35BB128881D49000440F00100E0
:107FB000224613F0BFFB204603B030BD002420460C
:107FC00003B030BD174A9DF802301288124D02A945
:107FD00060F3000321F8082D26208DF80230FFF70A
:107FE00049FF04466B68002CDCD1022BE7D92888B6
:107FF0000D49000440F0030013F0E6FD204603B0F5
:1080000030BD28880949000440F0010013F0DCFD70
:10801000C0E700BF6C2B0020442900208802050027
:1080200028170500DE6D0020DC170500BC170500D1
:1080300070B5836893F849319B0704460FD4114DFE
:1080400095F86C302BB1FFF791FF98B985F86C006B
:1080500070BD0D4A0221BDE870401DF00DBF1546F0
:108060000CF0A4F92B68094A20460821BDE87040AD
:108070001DF002BF0346064A20460221BDE87040BB
:108080001DF0FABEFC2A002020180500C40E0500D1
:10809000F41705002DE9F04FDFF894B30278DBF810
:1080A000041091B00446132A00F28C81DFE812F02C
:1080B0001A002B0039000C019E00A8006900860000
:1080C00020017D015D0048012E013B01920062010B
:1080D000550170018A011400022900F2078311B0D2
:1080E000BDE8F08F022900F2158300224FF4804191
:1080F000BD481FF0D7FC0028F1D0BC4A40F2A711C0
:1081000020F04EF9EBE7022900F2FA82B6481FF0A0
:1081100067FC0028E3D0B54A40F2B31120F040F9E3
:10812000DDE7022900F2B881AF481FF059FC0028B2
:1081300040F0CB82AE4B1A78002AD0D1227A0121AE
:108140001970002A00F04C836088ADF830000523D8
:108150000DF132018DF82C3016F08CF9A54B1B680F
:108160000BA85B6B0C219847B9E70329B7D9BBF87B
:108170000000A288A049000440F0040013F0DAFADD
:10818000ADE7012900F256819C4B1B7803F0FF00FC
:10819000002B00F023810BA81FF0BEF900289ED011
:1081A000062303700BA996481DF074FC954B1A78B2
:1081B0000AB10122DA721FF099F990E7002940F024
:1081C0006181A06800288AD0884A40F24A2120F0C4
:1081D000E7F884E7032982D9BBF80000A2888A491E
:1081E000000440F0040013F0A5FA78E7032900F238
:1081F0003581864B6088197801221AF023F86EE7E2
:10820000032900F253810BAE05220021304625F0F0
:108210002FFF9DF82C2077499DF82F000D689DF8C1
:10822000301042F001028DF82C2095F8245065F3AF
:1082300006128DF82C2041F00301102540F00300B8
:108240000727A2688DF830108DF82E508DF82F007A
:108250008DF82D701278DBF8041012F004029DF8EE
:108260002C2015BF42F0040202F0FB026FF3C7128C
:1082700042F080028DF82C209DF82C2002F0F005B1
:10828000B5F1300318BF012363F3410203298DF8D0
:108290002C2000F294825E4B1B78002B00F0888229
:1082A000E468002C00F0AF82304614F087FF00280D
:1082B00000F0A78296E803002346012243F8040F4A
:1082C0002172236062720AE7012900F2BD80484BE7
:1082D0001B78002B7FF403AF4E4C132120881AF03B
:1082E0000FFB00287FF4FBAE4FF6FF732380F6E60A
:1082F00003297FF6F4AEBBF80000237AA288464932
:10830000000440F0040013F0F3F8E8E603297FF6D8
:10831000E6AEBBF80000A2884049000440F004002B
:1083200013F008FADBE6002940F0FE81A06800287F
:108330003FF4D5AE2D4A40F2692120F031F8CEE667
:10834000002940F09580A06800283FF4C8AE274A75
:108350004FF4187120F024F8C1E602297FF6BFAE71
:10836000BBF80000A2882E49000440F0030013F07F
:10837000E1F9B4E6012908D9BBF80000A28829492F
:10838000000440F0020013F0D5F916F085F8A6E6D7
:1083900002297FF6A4AEBBF80000A288224900049F
:1083A00040F0030013F0C6F999E6002940F09381EC
:1083B000206900283FF493AE0C4A40F257211FF089
:1083C000EFFF8CE601297FF68AAEBBF80000174963
:1083D000000440F0020013F0ADF980E6034A40F2D9
:1083E00043211FF0DDFF7AE67C740020880205003F
:1083F000DC6D0020446A0020A00B0500D845002059
:1084000028820020E4810020681A05000122002053
:1084100025660020DE6D00209C190500241A050049
:10842000B41A05008C1A0500D81A0500281B05008F
:1084300044290020BBF80000A288C849000440F08D
:10844000020013F077F99FE6BBF80000A288C44948
:10845000000440F0020013F06DF938E7BBF80000AB
:10846000A288C049000440F0040013F063F9C0E69C
:10847000BBF80000A288BC49000440F0010013F0E2
:1084800059F960E7BBF80000A288B849000440F041
:10849000010013F04FF994E6BBF80000A288B4493C
:1084A000000440F0030013F045F93DE68168DFF871
:1084B000F8A209788088DAF808300393C1F38006BF
:1084C000C1F340050B90BBF800300593C809C1F318
:1084D0000211CDE90C65CDE90E01EFF3108672B6FD
:1084E000A4498D68002D40F08981A348A34B012742
:1084F0008F60D0F880701F400F60C0F88030D0F8D7
:1085000084704F604FF0FF310495C0F8841006B9B5
:1085100062B6DAE90115DAF8009068180130A0EBCC
:1085200009000A2800F27181DFF880820126A8F193
:10853000040758E8003F43EA060248E8002090F0AC
:10854000000FF6D157E8003F43EA060247E8002053
:1085500090F0000FF6D101EA0500033007910AEB15
:10856000800004E00798284003300AEB800007A948
:1085700012F0EAFB0028F5D1079B03EA05015A1C1B
:1085800002EA05000AEB81019A1C15400AEB800201
:10859000C968D26809920AEB850501F00302E86810
:1085A0000A900333012ACDE9073100F0D080022A76
:1085B00040F0C780BDF822209209033203EB9203FA
:1085C0000793002357E8002F02EA030147E8001051
:1085D00090F0000FF6D1002A00F0B0800799CAF899
:1085E0000410DAF80850DAF800006B1C1B1A0B4470
:1085F0000A2B9ED905400335052700F1080167F3D2
:10860000891704984AF825700BAECAF800101FF0BD
:1086100071F80398354609F1030109F1080C00EAE5
:1086200001030AEB8303013155F8042BDA6061453D
:10863000F5D153495348059F091AB7EBD10F04D31D
:10864000514940F285101DF08BFA039B09F101019D
:1086500019400AEB810109F10205CF60DAF80C1428
:108660001F461D4088470AEB850507EA090909F1FD
:108670000309E8601AF82910444D042060F3C5018D
:108680000AF829103AF82910052060F389112AF810
:1086900029105AF8290065F39F200146012565F34A
:1086A00001016FF382014AF829000AF829109AF8AB
:1086B0001C1429B9A8E512F079FB00283FF4A4ADF9
:1086C000DAE900329A42F6D19EE5314A4FF4DD7183
:1086D0001FF066FE2EE5BBF80000237AA2882D4924
:1086E000000440F0010012F003FF61E6BBF8000057
:1086F000A2882949000440F0030013F01BF8EEE4BF
:10870000BBF80000A2882549000440F0030013F0E4
:1087100011F8FBE4BBF80000A2882149000440F0F6
:10872000030013F007F8E0E4BBF80000A2881D493D
:10873000000440F0010012F0FDFFF7E5DAF8041044
:108740004FE711494FF4B7701DF00AFA39E7BDF849
:108750002020C2F383121344079332E768190500FF
:10876000A4180500C0180500041A050080190500AA
:10877000841805002440002000E100E0FC06FFBD55
:10878000A0A30500F0A105008C060500E018050077
:1087900088020500D0190500041B050068180500B3
:1087A00044180500481A0500B0410020C8450020C3
:1087B0000820174A40F233211FF0F2FD8FE4BBF886
:1087C00000001449D2B2C2F30217D509000440F0E8
:1087D000040001970095C2F3800212F053FD5AE5A0
:1087E0000D4B83F87420FFF7C1FB00283FF4ACACBD
:1087F000074A4FF4EB711FF0D3FDA5E40123049366
:1088000085E60720D5E70E20D3E74846F2E600BF0D
:108810008802050028190500FC2A002070B5A1492E
:108820000388B1F8582086B0103B0446ADF8042008
:10883000472B00F28480DFE813F048009300C90062
:108840008200820082008200E100820082008200B9
:10885000FB0082008200820082008200730110010E
:1088600082008200820082008200820082008200F8
:1088700082008200820082008200820082008200E8
:1088800082008200820082008200820082008200D8
:1088900082008200820082008200820082008200C8
:1088A00082008200820082008200820082008200B8
:1088B00082008200820082008200530182008200D6
:1088C0008200820082008200840077498388774A90
:1088D0000B800021ADF808301170754B012253E870
:1088E000001F01EB020043E8000595F0000FF6D1F0
:1088F000002900F060816F4B6F480125002202A91A
:1089000083F8745009F0F2FE002840F04F816A4865
:108910001EF07CFF18B1694AF6211FF041FDA088C6
:10892000ADF8100000230DF112018DF80C3015F098
:10893000A1FD634B1B6803A85B6B0C21984706B035
:1089400070BD5F4B82791B688DF810200C210D22C1
:108950005B6B8DF80C200DEB0100984706B070BDE5
:10896000514B58484FF6FF721A801FF039F8002813
:1089700040F016814F4A002302F1700151E8000FC8
:108980001D4641E8005696F0000FF7D14E4D92F883
:10899000B00182F86C304FF400010AF0C9F92B786D
:1089A0005BB14A4B5A68032A00F2E480484A1368D4
:1089B000D90700F1D18000232B70464B1B78002B88
:1089C000BDD1A088ADF810000123ACE73C4BA189D4
:1089D0001B680589E2894089ADF8141004240C2134
:1089E000ADF812005B6BADF810508DF80C40ADF88F
:1089F00016200DEB0100984706B070BD037A012BDD
:108A000000F0C080022B08D12D4B06A80B2200F8E5
:108A10000C2D1B680C215B6B98472A481EF0E0FF69
:108A200000288CD0254A4FF4A5711FF0B9FC86E7C9
:108A3000284B1B78002B82D11B4B1A884FF6FF73F3
:108A40009A427FF47CAF1E4B06A81B68082200F8F0
:108A50000C2D5B6B0C21984771E71C4B027A586810
:108A6000002A6ED102287FF66AAF627A1888531EF8
:108A7000DBB2032B96BF01EB8303174A9A6FA37AED
:108A8000013BDBB2032B98BF01EB83014FEA0040AF
:108A900094BF8B6F104B114940F0030012F028FD7A
:108AA0004DE700BF80FB0400DE6D0020DC6D002080
:108AB0006C2B0020FC2A0020DCFB0400880205004F
:108AC000446A00207C740020E06D002044290020CE
:108AD000E46D002098710020D8040500941B050067
